:100000000C948C010C94B4010C94B4010C94B401C4
:100010000C94B4010C94F9050C94B4010C94B40143
:100020000C94B4010C94B4010C94B4010C94B4017C
:100030000C94B4010C9483050C94B4010C94B40199
:100040000C940B040C94B4010C94B4010C94B40102
:100050000C94B4010C94B4010C94B4010C94B4014C
:100060000C9455040C94B4010000000024002700F7
:100070002A000000000023002600290010181C1E82
:100080001C18100000071911111F0000000021109A
:10009000422063308440A550C660E77008812991F2
:1000A0004AA16BB18CC1ADD1CEE1EFF1311210029A
:1000B00073325222B5529442F772D6623993188342
:1000C0007BB35AA3BDD39CC3FFF3DEE36224433466
:1000D00020040114E664C774A44485546AA54BB592
:1000E00028850995EEE5CFF5ACC58DD5533672263A
:1000F00011163006D776F6669556B4465BB77AA7E2
:1001000019973887DFF7FEE79DD7BCC7C448E55885
:100110008668A7784008611802282338CCC9EDD931
:100120008EE9AFF9488969990AA92BB9F55AD44AD9
:10013000B77A966A711A500A333A122AFDDBDCCB81
:10014000BFFB9EEB799B588B3BBB1AABA66C877CA5
:10015000E44CC55C222C033C600C411CAEED8FFDD1
:10016000ECCDCDDD2AAD0BBD688D499D977EB66E79
:10017000D55EF44E133E322E511E700E9FFFBEEF21
:10018000DDDFFCCF1BBF3AAF599F788F8891A981E3
:10019000CAB1EBA10CD12DC14EF16FE18010A100CD
:1001A000C230E3200450254046706760B9839893BD
:1001B000FBA3DAB33DC31CD37FE35EF3B10290121D
:1001C000F322D2323542145277625672EAB5CBA589
:1001D000A89589856EF54FE52CD50DC5E234C3246D
:1001E000A01481046674476424540544DBA7FAB75D
:1001F0009987B8975FE77EF71DC73CD7D326F236BD
:100200009106B01657667676154634564CD96DC9A8
:100210000EF92FE9C899E9898AB9ABA9445865480C
:1002200006782768C018E1088238A3287DCB5CDBFC
:100230003FEB1EFBF98BD89BBBAB9ABB754A545A5C
:10024000376A167AF10AD01AB32A923A2EFD0FEDC8
:100250006CDD4DCDAABD8BADE89DC98D267C076CAC
:10026000645C454CA23C832CE01CC10C1FEF3EFF9C
:100270005DCF7CDF9BAFBABFD98FF89F176E367EFC
:10028000554E745E932EB23ED10EF01E43594C3A39
:100290002030302020484541443A203000202D2D88
:1002A000204E4F2046494C4553202D2D2000204301
:1002B000415244204D4F554E54204F4B2E004E4F2F
:1002C000204341524420494E534552544544000076
:1002D000000000250028002B00040404040404048A
:1002E00004020202020202030303030303010204E5
:1002F00008102040800102040810200102040810A8
:1003000020000000080002010000030407000000B4
:100310000000000000006C0D11241FBECFEFD8E0DC
:10032000DEBFCDBF11E0A0E0B1E0E0EBF1E302C041
:1003300005900D92AA33B107D9F725E0AAE3B1E001
:1003400001C01D92A03FB207E1F711E0CCE8D1E077
:1003500004C02197FE010E947217CB38D107C9F75C
:100360000E947D0D0C94D6180C940000CF92DF9261
:10037000EF92FF920F931F93CF93DF936C017A015B
:100380008B01C0E0D0E0CE15DF0589F0D8016D917A
:100390008D01D601ED91FC910190F081E02DC60117
:1003A0000995892B11F47E0102C02196ECCFC7017B
:1003B000DF91CF911F910F91FF90EF90DF90CF9041
:1003C000089585ED8093BC008091BC0084FDFCCF36
:1003D0001092FF0108954091AB01262F30E0240FC9
:1003E000311D21323105DCF42091FF012430C9F4A4
:1003F000FC0180E090E0861758F43091AB01219128
:10040000DC01A757BE4FA30FB11D2C930196F3CF6C
:100410008091AB01680F6093AB0180E0089581E0AB
:10042000089582E00895089581E090E030910302FC
:1004300020910202321710F480E090E091958195AE
:10044000910908958091030290910202891730F476
:100450008F5F8093030280E090E008958FEF9FEF1D
:1004600008958091020290E020910302821B91097D
:100470000895CF92DF92EF92FF920F931F93CF9345
:10048000DF937C01262F972F8A0180918801882392
:1004900091F0C62FD72F6E01C40ED51ECC15DD05E9
:1004A00071F06991D701ED91FC910190F081E02DFF
:1004B000C7010995F3CF642F822F0E94EB01C80179
:1004C000DF91CF911F910F91FF90EF90DF90CF9030
:1004D0000895CF93DF931F92CDB7DEB76983209144
:1004E00088012223D1F020910002203240F021E047
:1004F00030E0FC013383228380E090E015C08091DE
:100500000102E82FF0E0E859FE4F998190838F5F58
:10051000809301028093000205C061E0CE01019644
:100520000E94EB0181E090E00F90DF91CF91089560
:100530008EBD0DB407FEFDCF08950E94B418833020
:1005400081F028F4813099F08230A1F0089587304D
:10055000A9F08830B9F08430D1F4809180008F7D8B
:1005600003C0809180008F7780938000089584B5C8
:100570008F7702C084B58F7D84BD08958091B000CF
:100580008F7703C08091B0008F7D8093B000089575
:10059000CF93DF93282F30E0F901EF5FFC4F849178
:1005A000F901E351FD4FD491F901E752FD4FC49198
:1005B000CC2391F081110E949F02EC2FF0E0EE0F0E
:1005C000FF1FEE58FF4FA591B491EC91ED2381E010
:1005D00090E021F480E002C080E090E0DF91CF91D4
:1005E0000895CF92DF92EF92FF920F931F93CF93D4
:1005F000DF93C0915C02D0915D028FB7F894C090F8
:10060000F901D090FA01E090FB01F090FC018FBF5E
:100610008B85882359F089859A8502979A878987DF
:1006200089859A8597FF02C01A86198688810E945B
:10063000C8022B8130E08217930711F413E001C048
:1006400010E089810E94C8022B8130E08217930755
:1006500011F481E018278E819F81811B80FF12C0D9
:10066000212F110F330B3F832E832C813D8182700C
:10067000082E000C990B0197820F931F9D838C838A
:1006800081E001C080E09B85992361F0882351F0CF
:1006900089859A85883E9B4028F489859A85499664
:1006A0009A8789878A81882309F470C040914E0116
:1006B00050914F0160915001709151019701860155
:1006C000041B150B260B370B0A30110521053105CC
:1006D00008F45CC0C0924E01D0924F01E0925001EC
:1006E000F09251010E94C8022B8130E082179307DB
:1006F00081F480914C0190914D01019690934D01B0
:1007000080934C018937910520F083E090E09D872C
:100710008C878A810E94C8023B8121E0232730E038
:100720008217930731F580914C0190914D01892BEF
:10073000E1F08C859D85039719F484E090E008C072
:1007400080914B01823048F08C3378F486E090E061
:100750009D878C8710924B0108C08E85811102C045
:1007600081E001C08CE380934B0110924D01109207
:100770004C0180914B01882349F0825080934B01BA
:10078000811104C085E090E09D878C87DF91CF9137
:100790001F910F91FF90EF90DF90CF900895CF932E
:1007A000DF9390E0FC01E351FD4F2491FC01E752FF
:1007B000FD4F8491882361F190E0880F991FFC011F
:1007C000E859FF4FC591D491FC01E153FD4FA5912C
:1007D000B491611109C09FB7F89488812095822354
:1007E0008883EC912E230BC0623061F49FB7F8949C
:1007F0003881822F809583238883EC912E2B2C9334
:100800009FBF06C08FB7F894E8812E2B28838FBF37
:10081000DF91CF9108951F920F920FB60F9211247E
:100820002F933F938F939F93AF93BF938091F90141
:100830009091FA01A091FB01B091FC013091F80177
:1008400023E0230F2D3720F40196A11DB11D05C013
:1008500026E8230F0296A11DB11D2093F801809375
:10086000F9019093FA01A093FB01B093FC018091F0
:10087000F4019091F501A091F601B091F701019674
:10088000A11DB11D8093F4019093F501A093F60191
:10089000B093F701BF91AF919F918F913F912F91AD
:1008A0000F900FBE0F901F9018951F920F920FB6CA
:1008B0000F9211242F933F934F935F936F937F93E6
:1008C0008F939F93AF93BF93EF93FF938091B90062
:1008D000887F803609F49CC068F5883209F45BC0D3
:1008E00090F4803109F454C038F4882309F4F6C038
:1008F000883009F44DC0F6C0883109F44CC080320C
:1009000009F45DC0EFC0803409F468C048F4803356
:1009100009F455C0883309F0E5C08093D001D8C0F0
:10092000803509F44FC0883509F45DC0883409F07A
:10093000D9C0D6C0883909F4C7C0A8F4883709F4EB
:1009400067C038F4883609F463C0803709F460C0A2
:10095000C9C0883809F4B8C0803909F45FC080384C
:1009600009F0C0C05BC0803B09F486C038F4803A0F
:1009700009F466C0883A09F47FC0B4C0803C09F429
:10098000A7C0883C09F4A4C0883B09F48AC0AAC067
:100990008091F30110C09091F2018091F1019817BC
:1009A00070F5E091F20181E08E0F8093F201F0E0AA
:1009B000EF52FE4F80818093BB0085EC86C0809310
:1009C000D0018EC0E091F20181E08E0F8093F201A0
:1009D0008091BB00F0E0EF52FE4F80839091F201D6
:1009E0008091F1016EC0E091F20181E08E0F809361
:1009F000F2018091BB00F0E0EF52FE4F80838091C6
:100A0000FE0181116DC081E08093FD0184EA61C027
:100A100083E08093FF011092CF01CFCF8091CF016F
:100A2000803208F051C0E091CF0181E08E0F8093B9
:100A3000CF018091BB00F0E0E155FE4F8083BDCF38
:100A400085EC8093BC001092FF018091CF01803231
:100A500030F4E091CF01F0E0E155FE4F108260915B
:100A6000CF0170E0E091AD01F091AE018FEA91E02D
:100A700009951092CF0136C084E08093FF01109257
:100A8000AC011092AB01E091A901F091AA01099586
:100A90008091AB01811105C081E08093AB01109280
:100AA0008901E091AC0181E08E0F8093AC01F0E010
:100AB000E757FE4F80818093BB009091AC018091FD
:100AC000AB01981708F479CF85E88093BC000AC081
:100AD00085EC8093BC001092FF0104C01092D001FD
:100AE0000E94E101FF91EF91BF91AF919F918F9192
:100AF0007F916F915F914F913F912F910F900FBE1A
:100B00000F901F9018951F920F920FB60F921124FD
:100B10002F933F934F935F936F937F938F939F9305
:100B2000AF93BF93EF93FF93E0911902F0911A02F4
:100B30000995FF91EF91BF91AF919F918F917F9117
:100B40006F915F914F913F912F910F900FBE0F903A
:100B50001F901895282F30E0A90166E0559547951C
:100B60006A95E1F7E42F90911C0290FF02C087FF85
:100B7000E4609091C00095FFFCCFF0E0E95FFE4F8C
:100B800090819093C6009091C00095FFFCCFF90131
:100B900044E0F595E7954A95E1F7E770FF27E95FAF
:100BA000FE4F90819093C6009091C00095FFFCCFBE
:100BB00090911B0291110BC0F901F595E795F59500
:100BC000E795E770FF27E95FFE4F908101C09FE73F
:100BD0009093C60080931C029091C00095FFFCCFBB
:100BE0008770E82FF0E0E95FFE4F80818093C600B8
:100BF00008951F920F920FB60F9211242F933F93D7
:100C00004F935F938F934C9922C01092C1008091B3
:100C10001E024D9B0BC0882319F0815080931E0249
:100C200080911E02811110C0539A0EC0482F50E0CF
:100C30004F5F5F4F20911F0230E0421753071CF4B3
:100C40008F5F80931E02539881E080931D028F91E5
:100C50005F914F913F912F910F900FBE0F901F907A
:100C60001895EFE6F0E080818E7F8083E1E8F0E088
:100C70008081887F808308958FEF8EBD0DB407FE3D
:100C8000FDCF8EB50895CF92DF92FF920F931F9301
:100C9000CF93DF93C82F142F052FD62EC72EF22EF9
:100CA0002A9A87FF0BC020E040E050E0BA0187E7B6
:100CB0000E944306D82F8230C8F5CF772A9A0E9427
:100CC0003C062A980E943C068C2F0E9498028C2D8C
:100CD0000E9498028D2D0E949802802F0E949802F7
:100CE000812F0E949802C03421F0C83421F487E893
:100CF00003C085E901C08FEF0E949802C0E00E9406
:100D00003C06D82F8F3F19F4CF5FC038C1F780E180
:100D1000C82E82E0D82E8601802F8C198F1530F4D2
:100D20000E943C06F80181938F01F6CF8D2FDF9151
:100D3000CF911F910F91FF90DF90CF90089520E009
:100D400040E050E0BA018AE40E944306811111C0DC
:100D5000EBE3F1E02FEF80E18E0F2EBD0DB407FE27
:100D6000FDCF9EB591938E13F8CF2A9A60914401DE
:100D700001C060E070E080E090E00895CF92DF92E3
:100D8000EF92FF920F931F93CF93DF93EC016901D2
:100D90008091140283FD07C099E0440F551F661F20
:100DA000771F9A95D1F720E081E50E9443068823BA
:100DB00019F081E090E032C080E4E82E8CE9F82E52
:100DC0000E943C068F3F29F481E0E81AF108C1F740
:100DD000F0CF8E3F71F740E050E08FEF8EBD0DB445
:100DE00007FEFDCF4C155D0540F00115110529F0FA
:100DF0009EB598830150110921964F5F5F4F423095
:100E000092E0590759F72A9A8FEF8EBD0DB407FE6D
:100E1000FDCF81E090E0012B09F480E0DF91CF91DC
:100E20001F910F91FF90EF90DF90CF90089591E088
:100E30009093880190E290933A01109201021092EF
:100E40000002682F661F6627661F660F660F660F13
:100E500086FD646085FD626084FD616082FD606482
:100E600081FD606280FD606184E092E00E94690221
:100E700080910002813208F045C09091FF019111EC
:100E8000FCCF92E09093FF0191E09093FE019FEFE1
:100E90009093D0011092F2018093F101A8E6B1E0A5
:100EA00021ED31E0F9019E2F921B981718F49D91C6
:100EB0009193F9CF1092F3018091F30180648093B4
:100EC000F3018091FD01813061F41092FD01809168
:100ED000F3018093BB008091BC0083FDF8CF85ECCB
:100EE00001C085EE8093BC008091FF018230E1F368
:100EF0008091D0018F3F31F08091D001803211F08C
:100F00008091D0011092010210920002109288018B
:100F10000895CF93C82F84600E9417078AE08A95AE
:100F2000F1F700C08C2F8B7FCF910C941707CF93D4
:100F3000C82F807F81600E9489078FE891E0019728
:100F4000F1F700C0000020E1C29FC0011124C82FAA
:100F5000C1608C2F0E9489078C2F0E9417078FE396
:100F60009FE10197F1F700C00000CF910895CF9362
:100F7000DF93FC018491EF012196882321F00E94E8
:100F80009707FE01F7CFDF91CF9108951F93CF937D
:100F9000DF93EC0110E0212F30E0FE0101900020F2
:100FA000E9F73197EC1BFD0B2E173F0740F4FE01CC
:100FB000E20FF31F80810E9497071F5FECCFDF9144
:100FC000CF911F910895CF93DF93C82FD82FD07F53
:100FD0008D2F0E9489078D2F0E9417078FE891E0BF
:100FE0000197F1F700C00000DC2FD295D07F8D2F44
:100FF0000E9489078D2F0E941707CC7F29F08FE868
:1010000091E00197F1F704C08FE39FE10197F1F7B9
:1010100000C00000DF91CF910895613041F028F0C9
:10102000623039F0633039F00895805805C080543B
:1010300003C0805701C080530C94E3070F931F93A4
:10104000CF93682F80E00E940D0880E00E949707F0
:1010500009E312E0C0E0F8013197808184FF07C006
:101060006C2F81E00E940D0881E00E9497076C2F91
:1010700082E00E940D08C8010E94C6070A5E1F4F49
:10108000C13011F0C1E0E7CFCF911F910F910895CA
:1010900081E00C94E307CF92DF92EF92FF920F93DF
:1010A0001F93CF93DF93EC016A017B0102E010E014
:1010B0002EEF31E00E94BE06892BB1F48881998120
:1010C00085359A4A99F422E530E0B701A601CE01B0
:1010D0000E94BE06892B61F481E028813981263483
:1010E000314439F480E005C083E003C082E001C0F0
:1010F00081E0DF91CF911F910F91FF90EF90DF90F2
:10110000CF9008950F931F93E091EA05F091EB05BE
:101110009B01AC012250310941095109828193811F
:10112000A481B5810297A109B109281739074A0797
:101130005B0768F4A081B0E00E94671706851785F9
:1011400020893189600F711F821F931F03C060E0E7
:1011500070E0CB011F910F9108950F931F93CF93D0
:10116000DF93DC01E091EA05F091EB0511961C920A
:101170001E9214966D917D918D919C91179761307F
:1011800071058105910551F1028113812481358119
:10119000601771078207930708F5611571058105CE
:1011A000910521F46285738584859585ED016887B5
:1011B00079878A879B87611571058105910519F0EB
:1011C0000E94820804C062857385848595856C873A
:1011D0007D878E879F8780E090E002C081E090E06D
:1011E000DF91CF911F910F9108950F931F93CF938C
:1011F000DF9300D000D0CDB7DEB7E091EA05F091E3
:10120000EB05623071058105910528F461E070E01D
:1012100080E090E030C00281138124813581601725
:1012200071078207930790F7462F4F7724E0429F7C
:10123000D0011124AB01BC0187E0769567955795E5
:1012400047958A95D1F70681178120853185400F12
:10125000511F621F731F04E010E09D01CE01019633
:101260000E94BE06892B91F689819A81AB81BC814F
:10127000BC01CD019F700F900F900F900F90DF91E8
:10128000CF911F910F9108952F923F924F925F92AD
:101290006F927F928F929F92AF92BF92CF92DF9286
:1012A000EF92FF920F931F93CF93DF93EC01009186
:1012B000EA051091EB05F80126A037A0E880F98037
:1012C000FFEFEF1AFF0A88849984AA84BB844C84B8
:1012D0005D846E847F84E114F10409F467C04114D5
:1012E00051046104710409F461C067018FE0C822F0
:1012F000DD24C114D104E9F5D301C2010196A11D79
:10130000B11D8C879D87AE87BF8781149104A1048E
:10131000B10409F44BC0F801808190E00197970176
:1013200044E0369527954A95E1F782239323892B4C
:1013300001F5C501B4010E94F5086230710581050F
:10134000910518F481E090E036C0F8010281138124
:1013500024813581601771078207930738F5688704
:1013600079878A879B870E9482086C877D878E8712
:101370009F87960185E0220F331F8A95E1F74C8500
:101380005D856E857F8500E210E0C1010E94BE068A
:101390000097C1F6F101208121110BC04C865D86BA
:1013A0006E867F8688869986AA86BB8683E090E0D3
:1013B00002C0F982E882DF91CF911F910F91FF90D7
:1013C000EF90DF90CF90BF90AF909F908F907F90E5
:1013D0006F905F904F903F902F9008956F927F9203
:1013E0008F929F92AF92BF92CF92DF92EF92FF9235
:1013F0000F931F93CF93DF93CDB7DEB72C970FB624
:10140000F894DEBF0FBECDBFF82EE62ECE010196BA
:101410005C018BE591E098E0792E780E2EE2622E49
:10142000EE2079F040E150E060E272E08AED95E074
:101430000E94B918892B11F48EEF24C10E944B0C25
:1014400004C08AED95E00E944409892BA9F7E09138
:10145000EA05F091EB05309709F4A3C0B092DD05E1
:10146000A092DC0586A097A033E020E04091E6053D
:101470005091E7056091E8057091E9054115510526
:1014800061057105A1F02091DA053091DB052F701F
:10149000332785E0220F331F8A95E1F700E210E041
:1014A000C4010E94BE06892B09F4C9C0E4C0832F81
:1014B000922F009761F01092E6051092E7051092C6
:1014C000E8051092E9058330910509F0D7C0E09155
:1014D000EA05F091EB0586A097A04091E6055091B2
:1014E000E7056091E8057091E905452B462B472BF0
:1014F00019F4EBE5F1E051C09401EBE5F1E0D9011D
:101500008D919D01803259F0853009F485EE319638
:10151000AF0141505109DA018C937E12F0CFD40112
:1015200018968C918032A9F06082C40108969F01C0
:101530002C5F3F4F3196DC016D91CD01603249F057
:101540003196AF0141505109DA016C93E217F3076C
:1015500091F7D4011B968C911B9780935A015C964E
:101560004D915D916D917C915F97409352015093A5
:101570005301609354017093550158968D919C913D
:101580005997909357018093560156968D919C914F
:1015900057979093590180935801108280E090E012
:1015A00002C088E090E0892B09F045C080915B0182
:1015B000882309F435CF6FE171E08BE591E00E945B
:1015C000C416892B21F480915A0184FF29CFB1E000
:1015D000EB120AC046E150E066E472E080E392E07C
:1015E0000E94B918892B49F1F11006C086E1E0E3A9
:1015F000F2E0A6E4B2E008C0E1E0FE1209C086E134
:10160000E6E4F2E0A0E3B2E001900D928A95E1F702
:10161000F0FACC24C0F8D12C86E18C9DD0018D9DB0
:10162000B00D1124A05DBD4FE2E5F1E001900D92F7
:101630008A95E1F702C08FEF25C080E023C0D40176
:101640008C918823A9F0D4011B969C91853E11F0C2
:1016500093FF3DCFEE2039F00E944B0C009709F02C
:101660002ACF30E002CF8AED95E00E944409F6CF00
:1016700083E090E020CF81E090E01DCF009709F05B
:1016800092CF37CF2C960FB6F894DEBF0FBECDBFEA
:10169000DF91CF911F910F91FF90EF90DF90CF904E
:1016A000BF90AF909F908F907F906F900895AF9272
:1016B000BF92CF92DF92EF92FF920F931F93CF933F
:1016C000DF936C01262F972FFB018191BF018032A0
:1016D000C9F3E22EF92E8F3219F4FFEFEF1AFF0A49
:1016E000F6011482158216821782F70180818032FA
:1016F00008F094C0C601DF91CF911F910F91FF9028
:10170000EF90DF90CF90BF90AF900C94AD089E32D9
:1017100009F4B0C0281708F096C09F3708F093C0AE
:10172000692F70E0E4E2F1E04191411185C04FE999
:10173000490F4A3108F49052FE01E20FF11D9083E7
:101740002F5F932F31E0390FF701E90FF11D9081E1
:10175000903208F47BC09F32D1F6222309F473C083
:10176000E30EF11C80E08B87C6010E94AD08EC01FE
:10177000892B09F084C0E091EA05F091EB05A6A061
:10178000B7A0F601208131812F70332745E0220F69
:10179000331F4A95E1F7448555856685778500E2D4
:1017A00010E0C5010E94BE06892B09F060C0F5015A
:1017B0008081882309F458C0F501838583FD4CC0DE
:1017C000F601028113814BE050E0B801C5010E948F
:1017D000B918892B09F040C0F801838581114FC0E9
:1017E000E091EA05F091EB0506A0F7A1E02D8385D5
:1017F00084FF3AC084899589A0E0B0E0DC01992794
:101800008827428D538D60E070E0842B952BA62BAA
:10181000B72BF60184839583A683B783F601C28133
:10182000D3814BE050E060E270E0CE010E94CF181F
:1018300020E090E088E086CF042E000C550B461780
:10184000570709F071CFC5E0D0E019C02223D9F3C2
:10185000E30EF11C81E087CFC6010E944409009786
:1018600009F48FCFEC010BC0C3E0D0E008C0C1E0A9
:10187000D0E005C0883039F728E08BE062CFCE0198
:10188000DF91CF911F910F91FF90EF90DF90CF905C
:10189000BF90AF9008958F929F92AF92BF92CF92D8
:1018A000DF92EF92FF920F931F93CF93DF93E0911C
:1018B000EA05F091EB05309709F47DC0C091DA0597
:1018C000D091DB05209709F479C08091E6059091CD
:1018D000E705A091E805B091E905892B8A2B8B2BB0
:1018E00009F46CC0E0800091DE051091DF052091C5
:1018F000E0053091E105013011052105310519F4AC
:1019000081E090E05DC082819381A481B581081758
:1019100019072A073B07A0F7011511052105310515
:1019200021F4028513852485358521976E0184E095
:10193000D694C7948A95E1F7F12CC601B7010E94AD
:101940001D175B01812C912C8A149B0479F0C9012D
:10195000B8010E94F5088B019C0162307105810578
:10196000910570F28FEF881A980AEECF0093E20586
:101970001093E3052093E4053093E505C901B80110
:101980000E9482088B019C01C601B7010E941D17AD
:10199000080F111D211D311D0093E6051093E70569
:1019A0002093E8053093E905D093DB05C093DA0571
:1019B00080E090E005C088E090E002C083E090E025
:1019C000DF91CF911F910F91FF90EF90DF90CF901B
:1019D000BF90AF909F908F9008950F931F93CF93D8
:1019E000DF93CDB7DEB72C970FB6F894DEBF0FBEEE
:1019F000CDBFE091EA05F091EB051092DB05109266
:101A0000DA05309771F1BC01CE0101969093DD05A6
:101A10008093DC0506A117A18AED95E00E94570B83
:101A2000009749F5F8018081882309F1838584FFB7
:101A30001BC084899589A0E0B0E0DC019927882744
:101A4000428D538D60E070E0842B952BA62BB72B35
:101A50008093DE059093DF05A093E005B093E10548
:101A600006C088E090E007C083E090E004C08AED03
:101A700095E00E94AD082C960FB6F894DEBF0FBE1D
:101A8000CDBFDF91CF911F910F910895CF93DF9339
:101A9000282F30E0F901EF5FFC4F8491F901E35109
:101AA000FD4FD491F901E752FD4FC491CC2389F049
:101AB00081110E949F02EC2FF0E0EE0FFF1FE15317
:101AC000FD4FA591B4918FB7F894EC91ED2BEC9369
:101AD0008FBFDF91CF910895E4E0F2E0138212828C
:101AE00088EE93E0A0E0B0E084839583A683B7837B
:101AF00083E191E0918380830895CF93DF93CDB705
:101B0000DEB7C554D1090FB6F894DEBF0FBECDBF06
:101B1000789484B5826084BD84B5816084BD85B5C8
:101B2000826085BD85B5816085BD80916E008160D4
:101B300080936E001092810080918100826080937A
:101B4000810080918100816080938100809180007C
:101B50008160809380008091B10084608093B100A7
:101B60008091B00081608093B00080917A008460A1
:101B700080937A0080917A00826080937A008091CD
:101B80007A00816080937A0080917A0080688093E7
:101B90007A001092C1001092030210920202109279
:101BA0000102109200021092FF0181E08093FE0179
:101BB0001092FD0182E10E94460D83E10E94460DD4
:101BC0008091B9008E7F8093B9008091B9008D7F9C
:101BD0008093B90088E48093B80085E48093BC00CA
:101BE0008BE39DE00197F1F780E00E9417072FEF4C
:101BF00033EF41E0215030404040E1F700C00000A9
:101C000080E30E94170780E30E9489078FE19EE42A
:101C10000197F1F700C0000080E30E948907AFE858
:101C2000B1E01197F1F700C0000080E30E9489073E
:101C3000EFE8F1E03197F1F700C0000080E20E9488
:101C4000170780E20E94890780E20E9417078FE849
:101C500091E00197F1F700C0000088E20E94E307DD
:101C60008CE00E94E30786E00E94E3070E94480898
:101C700080E40E94E3070CE710E088E0F82EF00E05
:101C8000F80184910E9497070F5F1F4FF012F8CF61
:101C900088E40E94E30700E010E0F801EC57FF4FF2
:101CA00084910E9497070F5F1F4F08301105A9F715
:101CB000F8941092C50087E08093C4001092C00091
:101CC0001092C10080916D00806180936D008FE063
:101CD00090E00E9487178C0180E1D8018C9381E10C
:101CE00011968C9311978FE012968C9312971396FE
:101CF0001C92139715961C921E92149717961C927D
:101D00001E92169784E018968C9318971A961C9238
:101D10001E92199781E01B968C931B971D961C921F
:101D20001E921C971E968C9362E080E10E94CF0366
:101D300062E0F80181810E94CF0362E0D80112962F
:101D40008C910E94CF03F80180810E94C802D801C3
:101D500013962C91139730E08217930731F483E0A8
:101D600090E017969C938E931697F80181810E94BC
:101D7000C802D80113962C91139730E0821793076D
:101D800049F416968D919C911797B1E08B27F80135
:101D90009783868310935D0200935C028BB1816F01
:101DA0008BB988B18E6088B920988AB1837F8AB94F
:101DB0008CE284B980E58CBD789488EF94E09093B0
:101DC000D9058093D80588ED94E09093D70480934B
:101DD000D6040E9431060E9448088EEB92E00E94D1
:101DE000B7078CE2E0E3F2E0DF011D928A95E9F7A4
:101DF00010EBA12E14E0B12E1092EB051092EA0523
:101E0000109214022A9A14E10E943C061150E1F744
:101E100020E040E050E0BA0180E40E944306182F21
:101E2000813009F04FC024E04AEA51E060E070E000
:101E300088E40E9443068130B1F48091120281301F
:101E400009F040C0809113028A3AE1F508EA11E6F0
:101E500020E040E050E060E070E489EE0E9443063C
:101E60008111DDC623C020E040E050E0BA0189EED8
:101E70000E944306823028F4B2E0B093140299EE37
:101E800003C01093140291E408EA11E620E040E058
:101E900050E0BA01892F26969FAF26970E944306ED
:101EA00026969FAD26978111C9C6CFC6012B51F04A
:101EB00024E040E050E0BA018AE70E94430688230C
:101EC00009F4B2C62A9A0E943C0680911402882323
:101ED00009F492CF40E050E0BA01CE0101960E9491
:101EE0004B08813011F500E110E02EEB31E040E0CD
:101EF00050E0BA01CE0101960E94BE06892B19F06E
:101F000001E010E090C08D818B50823018F009E024
:101F100010E089C049845A846B847C84B301A20197
:101F2000CE0101960E944B0803C0412C512C320176
:101F3000833031F38111EBCF04E210E02DE030E08B
:101F4000B301A201CE0101960E94BE068C01892B2D
:101F5000B9F6E981E093B004AC81288D398D4A8DC2
:101F60005B8DB0E00E94671722966CAF7DAF8EAF9D
:101F70009FAF2297CA80DB80E12CF12C8C899D8950
:101F8000AE89BF898C199D09AE09BF09BC01CD017D
:101F900022962CAD3DAD4EAD5FAD2297621B730B0B
:101FA000840B950B2E2F30E040E050E00E94451747
:101FB000DA01C9010296A11DB11D8093B20490936C
:101FC000B304A093B404B093B50488A199A1AAA1C5
:101FD000BBA18093BA049093BB04A093BC04B093BC
:101FE000BD04C40CD51CE61CF71CC092B604D092EC
:101FF000B704E092B804F092B90422968CAD9DAD7E
:10200000AEADBFAD2297C80ED91EEA1EFB1EC09210
:10201000BE04D092BF04E092C004F092C104B0921A
:10202000EB05A092EA05012B09F0E6CE0E944808D4
:102030008EEA92E00E94B7070E949F0669AB7AABD6
:102040008BAB9CAB2A9A40EE50E064E070E080914C
:10205000D8059091D9050E94E916E091D805F09134
:10206000D9058081882331F144E050E060E070E0E0
:10207000CE0101960E94E91649815A816B817C81CB
:1020800089A99AA9ABA9BCA9481759076A077B0770
:1020900071F044E050E060E070E0CE01C1960E9433
:1020A000F91660E084E090E00E9403179ACE91E078
:1020B0009EAF36C284E391E00E94ED0C912C0E9409
:1020C000480860E082E00E94EE0981110CC080E1C6
:1020D000EAEDF5E0A0E2B2E001900D928A95E1F719
:1020E0003324339401C0312C60E083E00E94EE0978
:1020F000811105C03394812C2224239429C0812C82
:1021000022242394311024C091100FC08DE992E055
:102110000E94B707AFEFBBE7E2E9A150B040E04053
:10212000E1F700C00000892C5CCE8CE2E0E3F2E035
:10213000DF011D928A95E9F78EE280933902809340
:102140003A0280E180933802832C33243394232C89
:102150000E944808882D0E941E081092AF04109219
:10216000AE041092AD041092AC041092800080E195
:102170008093810021E0209317028FB7809318028B
:10218000F89480E49FE19093160280931502909357
:10219000870080938600809118028FBF8091810014
:1021A000887F809381009091810080911702982B05
:1021B0009093810041EF52E050931A02409319022C
:1021C00020936F0090918100892B80938100319B37
:1021D000BDC08091AE049091AF04892B09F046C038
:1021E000E0915C02F0915D02F89424813581808554
:1021F000823021F4C9018170992705C0843031F4FF
:10220000C901837099279583848302C01582148243
:1022100078948085843029F43595279535952795D0
:1022200004C0823011F4359527958385882329F0E1
:1022300081859285892F992702C080E090E037FF41
:1022400003C08095909506C0232B11F0019602C023
:1022500080E090E02091AE043091AF04820F931F94
:102260009093AF048093AE043199B3CFC9A8DAA894
:10227000EBA8FCA80E949F06C616D706E806F9063A
:1022800009F0A7CD8091AE049091AF0418161906FD
:1022900064F5B1E0B31508F054C0811019C02220D4
:1022A00081F080EC0E94E30780E00E94970780E8BD
:1022B0000E94E30780E20E949707212C88248394E0
:1022C00040C060E083E00E94EE0987FFEACF81CD45
:1022D00060E081E00E94EE09811131C00E9448084F
:1022E000882D0E941E08212C2CC0892B09F46FCF49
:1022F000E1E0E31530F58E1214C061E082E00E9447
:10230000EE0987FD66CD80E80E94E30780E00E9429
:10231000970780EC0E94E30780E20E949707812CD8
:1023200010C021100EC061E080E00E94EE09811112
:1023300006C00E944808882D0E941E0802C087FD22
:1023400048CD1092AF041092AE0441CF25961FAE37
:102350002597319911C02596FFAD2597FF5F2596EA
:10236000FFAF25972FEF31EE44E021503040404041
:10237000E1F700C00000EDCF5FEF85EA9EE051502D
:1023800080409040E1F700C000000091D805109116
:10239000D9058FE2D8018C93C82CD12CB6E18B9E45
:1023A00070011124F701E05DFD4F808584FF64C05A
:1023B00042E050E066E371E0C701875C9D4F0E94F8
:1023C000B918892B31F49920F9F09A94911012C020
:1023D0001BC0E9E0E91570F08DE0899DD001112462
:1023E000A65DBB4FF701E75CFD4F01900D928A950A
:1023F000E1F793945AE2E52E54E0F52ECC24C394F1
:10240000D12C6FE2B62E06C084E391E00E94ED0C61
:10241000912C28C0F70101900020E9F73197AF0116
:102420004E195F09B701C8018C0D911D0E94C61895
:10243000F70101900020E9F73197EE19FF09EC0D43
:10244000CC24C394CE0E98012E0F311DF901B08219
:10245000D3943DE0E30EF11CD910DCCF1082C8010B
:102460000E94ED0C8CE2E0E3F2E0DF011D928A9520
:10247000E9F70E94310623CE0E9431063AE2E32EAC
:1024800034E0F32EB12CAA24A3944FE2742E8A2DAB
:1024900090E0B91411F1F70101900020E9F73197AC
:1024A000AF014E195F09B701800F911F0E94C61836
:1024B000F70101900020E9F73197EE19FF09EA0DC5
:1024C000AA24A394AE0E98012E0F311DF90170823B
:1024D000B3943DE0E30EF11CDACF46E14C9D900150
:1024E0004D9D300D1124A901475C5D4F7A01FA0121
:1024F00001900020E9F73197AF014E195F09080FED
:10250000191FB701C8010E94C618F70101900020E9
:10251000E9F73197EE19FF09E00FF11F10821EAEA7
:102520006091D8057091D9050091EA051091EB05ED
:1025300001151105D9F1D8019696ED90FC90979769
:10254000CE0185969C838B8384970E94570B0097BE
:1025500019F0882389F12AC0F7018081882331F19D
:10256000838584FD23C084899589A0E0B0E0DC01E7
:1025700099278827428D538D60E070E0842B952B3E
:10258000A62BB72BF801828F938FA48FB58FF701FD
:10259000848D958DA68DB78DF801868B978BA08F36
:1025A000B18F128A138A148A158A06C0BEADB13063
:1025B00009F00FCC2A9A3DC1EEADE1111DC0259660
:1025C000FFAD2597F531C0F02A9A44E050E060E075
:1025D00070E0CE01C1960E94F9168091D8059091C5
:1025E000D905FC0101900020E9F7AF01481B590B08
:1025F00064E070E00E94F9160E94480880E00E94A2
:10260000970780E20E9497072EAD211107C036E19F
:10261000839EC0011124875C9D4F18C08091D8050E
:102620009091D905FC0101900020E9F73197E81B52
:102630002E2F30E0DC01A20FB31F4C914F3211F06E
:10264000E150F6CF2F5F3F4F820F931F0E94C607C6
:1026500080EC0E94E3078CE892E00E94B70780912B
:10266000C6049091C704A091C804B091C904AC01FC
:10267000BD015F716627772721E0452B462B472B4D
:1026800009F420E01DE0B695A795979587951A95D2
:10269000D1F7820F80931F02833518F082E5809373
:1026A0001F02C090CA04D090CB04E090CC04F090FC
:1026B000CD042601370156E07694679457944794E9
:1026C0005A95D1F7F201E170FF27B301A201769587
:1026D0006795579547958091B6049091B704A0915E
:1026E000B804B091B904480F591F6A1F7B1F00E05E
:1026F00011E020E03E2F88ED94E00E94BE06892B79
:1027000009F067CBC092E202D092E302E092E402C9
:10271000F092E502AA24A394B12C80911F02A0E1BB
:102720008A9FC0011124A816B90608F062C0609102
:10273000B00470E0C5010E941D17892B09F040C04C
:10274000D701C60136E0B695A795979587953A9536
:10275000D1F78AAF9BAFACAFBDAF84159505A60589
:10276000B70501F18091B6049091B704A091B80427
:10277000B091B9044AAD5BAD6CAD7DAD7695679512
:1027800057954795480F591F6A1F7B1F00E011E0BE
:1027900020E08AAD9BAD81709927382F88ED94E0B9
:1027A0000E94BE06CC0CCC0CEC2DF0E0E852FB4FA6
:1027B000C080D180E280F3804AAC5BAC6CAC7DAC75
:1027C000C5018F709927892B81F4F50114E0F695E6
:1027D000E7951A95E1F7EE0FFF1FEE0FFF1FEE5181
:1027E000FD4FC082D182E282F3829FEFA91AB90A1B
:1027F00094CF10921E0210921D02BFEFEDE3F9E498
:10280000B150E040F040E1F700C00000BB24BA94B2
:102810001092000189B1807C91F03199FBCF319BFE
:10282000FECF2A9A87E0809300012EAD213009F077
:102830008FCC60E084E090E00E940317CACA8091C8
:102840001E02811101C0539ADA9A80916800846057
:1028500080936800529A19AE89AD803108F0BEC1EC
:1028600089AD8111D3C010921C021EAA1DAA8DA988
:102870009EA9883E934030F48DA99EA901969EABF7
:102880008DABF5CF80911E02B81609F4BFC08091C0
:102890001D02882389F0F89410921D02789418AED6
:1028A0001FAA8FA998AD8031974288F78FA998AD5C
:1028B000019698AF8FABF5CFB0901E0254E0B59E55
:1028C000F0011124EE51FD4FC080D180E280F380F1
:1028D00026013701A6E07694679457944794AA9509
:1028E000D1F7C0926602D0926702E0926802F0923D
:1028F0006902C0926202D0926302E0926402F09296
:102900006502F201E170FF27B301A2017695679598
:10291000579547958091B6049091B704A091B8045B
:10292000B091B904480F591F6A1F7B1F00E011E0E6
:1029300020E03E2F88ED94E00E94BE06892B09F02E
:1029400021C282E692E024969FAF8EAF2497AA24FC
:10295000A3946091B0048A2D0E94111791113EC07A
:10296000A7019601F6E05695479537952795FA9574
:10297000D1F72AAF3BAF4CAF5DAF24153505460507
:102980005705F1F08091B6049091B704A091B80476
:10299000B091B904BA01A901769567955795479505
:1029A000480F591F6A1F7B1F00E011E020E08AAD2D
:1029B0009BAD81709927382F88ED94E00E94BE0668
:1029C000CC0CCC0CEC2DF0E0E852FB4FC080D18059
:1029D000E280F3804AAC5BAC6CAC7DAC2496AEADCF
:1029E000BFAD24971C96CD92DD92ED92FC921F977D
:1029F000FD01C086D186E286F386A394389624969C
:102A0000FFAFEEAF2497F0E1AF12A3CF89B1817091
:102A1000FF24F394F82699AD89AD1091B00409AD67
:102A20009170E92EEF2DF0E0DF0154E0AA0FBB1FFB
:102A30005A95E1F7A80FB11DAA0FBB1FAA0FBB1F24
:102A4000AE59BD4F8D919D910D90BC91A02D9C01D3
:102A5000AD012250310941095109A12FB0E00E9476
:102A600067174090BE045090BF046090C0047090FF
:102A7000C104460E571E681E791E9F012B0D311D85
:102A80002B0D311DC90173E0880F991F7A95E1F76D
:102A90000695800F911DBD010E943117AC01990F61
:102AA000660B770B440D551D661D771D00E011E088
:102AB00020E03E2D88ED94E00E94BE06892B09F0AF
:102AC00061C1E2EBEB25F0E0EE0FFF1FE457FF4F93
:102AD0008591949120E39227909361028093600204
:102AE000E0916102EF25F0E0EE0FFF1FE457FF4F8A
:102AF0008591949120916002922790936102809336
:102B00006002E9ADF0E0319680916102E827EE0FB6
:102B1000FF1FE457FF4F8591949120916002922707
:102B20009093610280936002E091610231E0E327BB
:102B3000F0E0EE0FFF1FE457FF4F85919491209135
:102B400060029227909361028093600245E952EE01
:102B500050935F0240935E0290E0E92FF0E0E8526C
:102B6000FB4FE08180915F02E827F0E0EE0FFF1F4E
:102B7000E457FF4F2591349180915E0238273093BE
:102B80005F0220935E029F5F41F780911D028111D9
:102B900025C04E9B68C022C0133109F4C3C008F49D
:102BA0009DC0163109F4C3C008F4ACC0183309F451
:102BB000C0C01B3309F4C2C01C3209F48DC0802F81
:102BC0000E94AA051F5F1C3339F789AD811101C02E
:102BD000209880911D02882309F4B4C089B1807CBB
:102BE00009F439CE90E0F8948091C2008F738093FD
:102BF000C2008091C100877F8093C100789480914A
:102C000068008B7F809368001092000120988AB141
:102C1000837F8AB92A9A992309F4FACDDAC8015038
:102C2000110909F44FC914C98091100286FD02C030
:102C300084E001C08CE08093140244C90150110962
:102C400009F024C9109214023DC9012BD9F320E0E8
:102C500040E052E060E070E080E50E944306882397
:102C600009F430C9EFCF80910001811103C057E012
:102C70005093000189AD81112EC080911E026AE03F
:102C80000E941117182F85EC0E94E30780E3810F43
:102C90000E94970780911E026AE00E94111780E34C
:102CA000890F0E9497078FEC0E94E30780E38F0D46
:102CB0000E949707F89480EC8093C2008091C10035
:102CC00088608093C10078941AE08EE40E94AA057F
:102CD0001150D9F7209A10E000E071CF1031F1F0D7
:102CE00048F41C30B9F01F3009F069CF10921B0274
:102CF0000EEF65CF1131A1F0123109F060CF09ADAF
:102D00000F5F5DCF143181F0153109F058CF00917C
:102D1000600255CF81E080931B020EC00B2D4FCF78
:102D20000F2D4DCF01E04BCF0091610248CF0EE453
:102D300046CF91E090931B0201EA41CF10921B0213
:102D40000BEF3DCF4E994ACF10E0E12FF0E0E85273
:102D5000FB4F80810E94AA051F5FB9F780915F0237
:102D60000E94AA0580915E020E94AA0516E38EE4E5
:102D70000E94AA051150D9F74E9930CF89AD8F5FC7
:102D800089AF6ACD91E02FCFFB0151915523B1F06E
:102D9000BF01DC01052E4D91442369F010D0D9F715
:102DA000CD010190002049F04D91411108D0C9F3A7
:102DB000FB014111EECF81E090E00197089540259D
:102DC00039F0403229F440294B57465E08F01894F8
:102DD0000895DC01CB01FC01F999FECF06C0F2BDDC
:102DE000E1BDF89A319600B40D9241505040B8F7C9
:102DF0000895DC01CB0103C02D910E9404174150BE
:102E00005040D0F70895262FF999FECF1FBA92BDF2
:102E100081BD20BD0FB6F894FA9AF99A0FBE0196BB
:102E20000895991B79E004C0991F961708F0961B26
:102E3000881F7A95C9F780950895AA1BBB1B51E19D
:102E400007C0AA1FBB1FA617B70710F0A61BB70B1A
:102E5000881F991F5A95A9F780959095BC01CD01BF
:102E6000089597FB072E16F4009407D077FD09D03C
:102E70000E941D1707FC05D03EF4909581959F4F49
:102E80000895709561957F4F0895A1E21A2EAA1BAF
:102E9000BB1BFD010DC0AA1FBB1FEE1FFF1FA2170A
:102EA000B307E407F50720F0A21BB30BE40BF50B07
:102EB000661F771F881F991F1A9469F76095709590
:102EC000809590959B01AC01BD01CF0108950E94B2
:102ED0007817A59F900DB49F900DA49F800D911D14
:102EE00011240895EE0FFF1F0590F491E02D099431
:102EF000A29FB001B39FC001A39F700D811D11243B
:102F0000911DB29F700D811D1124911D0895CF93C5
:102F1000DF938230910510F482E090E0E091EE05BD
:102F2000F091EF0520E030E0C0E0D0E0309711F103
:102F30004081518148175907C0F04817590761F47B
:102F400082819381209719F09B838A832BC0909371
:102F5000EF058093EE0526C02115310519F04217C3
:102F6000530718F49A01BE01DF01EF010280F381DB
:102F7000E02DDCCF2115310509F1281B390B243058
:102F8000310590F412968D919C91139761157105FE
:102F900021F0FB019383828304C09093EF0580931B
:102FA000EE05FD01329644C0FD01E20FF31F81934F
:102FB0009193225031092D933C933AC02091EC0516
:102FC0003091ED05232B41F4209103013091040150
:102FD0003093ED052093EC05209101013091020121
:102FE0002115310541F42DB73EB7409105015091AF
:102FF0000601241B350BE091EC05F091ED05E2177D
:10300000F307A0F42E1B3F0B2817390778F0AC010B
:103010004E5F5F4F2417350748F04E0F5F1F5093E8
:10302000ED054093EC058193919302C0E0E0F0E060
:10303000CF01DF91CF9108950F931F93CF93DF932B
:10304000009709F48CC0FC01329713821282009120
:10305000EE051091EF050115110581F420813181F4
:10306000820F931F2091EC053091ED052817390749
:1030700079F5F093ED05E093EC0571C0D80140E0DF
:1030800050E0AE17BF0750F412962D913C91139764
:10309000AD012115310509F1D901F3CF9D01DA0107
:1030A0003383228360817181860F971F8217930774
:1030B00069F4EC0128813981260F371F2E5F3F4FBD
:1030C000318320838A819B8193838283452B29F4DA
:1030D000F093EF05E093EE0542C01396FC93EE9358
:1030E0001297ED01499159919E01240F351FE21766
:1030F000F30771F480819181840F951F02961196D8
:103100009C938E938281938113969C938E931297B6
:10311000E0E0F0E0D80112968D919C911397009712
:1031200019F0F8018C01F6CF8D919C9198012E5FDA
:103130003F4F820F931F2091EC053091ED0528172A
:10314000390769F4309729F41092EF051092EE05D3
:1031500002C0138212821093ED050093EC05DF91FB
:10316000CF911F910F91089581E090E0F8940C9415
:10317000D618FB01DC0104C08D910190801921F467
:1031800041505040C8F7881B990B0895FB01DC01A2
:1031900002C001900D9241505040D8F70895DC01D3
:1031A00001C06D9341505040E0F70895F894FFCF6F
:1031B000070000F0058000777DDFDDF7FDDFDD0033
:1031C0000000006902390231022202140213022EA9
:1031D00074726400202B2C3B5B3D5C5D222A3A3CE0
:0A31E0003E3F7C002F002E2E000061
:107800000C94343C0C94513C0C94513C0C94513CE1
:107810000C94513C0C94513C0C94513C0C94513CB4
:107820000C94513C0C94513C0C94513C0C94513CA4
:107830000C94513C0C94513C0C94513C0C94513C94
:107840000C94513C0C94513C0C94513C0C94513C84
:107850000C94513C0C94513C0C94513C0C94513C74
:107860000C94513C0C94513C11241FBECFEFD8E036
:10787000DEBFCDBF11E0A0E0B1E0ECE9FFE702C060
:1078800005900D92A230B107D9F712E0A2E0B1E065
:1078900001C01D92AD30B107E1F70E942D3D0C945F
:1078A000CC3F0C94003C982F959595959595959582
:1078B000905D8F708A307CF0282F295A8091C0000B
:1078C00085FFFCCF9093C6008091C00085FFFCCF60
:1078D0002093C6000895282F205DF0CF982F809127
:1078E000C00085FFFCCF9093C6000895EF92FF92F1
:1078F0000F931F93EE24FF2487018091C00087FD22
:1079000017C00894E11CF11C011D111D81E4E8164B
:1079100082E4F8068FE0080780E0180770F3E09132
:107920000401F091050109958091C00087FFE9CF1E
:107930008091C6001F910F91FF90EF9008950E94D3
:10794000763C982F8091C00085FFFCCF9093C600B5
:1079500091362CF490330CF09053892F089597555D
:10796000892F08951F930E949F3C182F0E949F3CCF
:107970001295107F810F1F9108951F93182F882350
:1079800021F00E94763C1150E1F71F9108951F935A
:10799000182F0E94763C803249F0809103018F5F5E
:1079A000809303018530C1F01F9108958091C0003C
:1079B00085FFFCCF84E18093C6008091C00085FFE5
:1079C000FCCF1093C6008091C00085FFFCCF80E102
:1079D0008093C6001F910895E0910401F091050184
:1079E00009951F9108950E94763C803241F0809164
:1079F00003018F5F80930301853081F008958091AA
:107A0000C00085FFFCCF84E18093C6008091C00058
:107A100085FFFCCF80E18093C6000895E0910401CA
:107A2000F09105010995089540E951E08823A1F0FE
:107A30002D9A28EE33E0FA013197F1F721503040CA
:107A4000D1F72D9828EE33E0FA013197F1F7215064
:107A50003040D1F7815061F708953F924F925F9285
:107A60006F927F928F929F92AF92BF92CF92DF924E
:107A7000EF92FF920F931F93CF93DF93000080E16B
:107A80008093C4001092C50088E18093C10086E015
:107A90008093C2005098589A259A81E00E94143D24
:107AA00024E1F22E9EE1E92E85E9D82E0FE0C02ECA
:107AB00010E1B12EAA24A394B1E49B2EA6E58A2E50
:107AC000F2E57F2EE0E26E2E79E4572E63E5462E36
:107AD00050E5352E0E94763C8033B1F18133B9F107
:107AE000803409F46FC0813409F476C0823409F41B
:107AF00085C0853409F488C0803531F1823521F1A3
:107B0000813511F1853509F485C0863509F48DC0BC
:107B1000843609F496C0843709F403C1853709F423
:107B200072C1863709F466C0809103018F5F80932C
:107B30000301853079F6E0910401F0910501099582
:107B40000E94763C803351F60E94F33CC3CF0E94E2
:107B5000763C803249F78091C00085FFFCCFF092DF
:107B6000C6008091C00085FFFCCF9092C600809136
:107B7000C00085FFFCCF8092C6008091C00085FFC9
:107B8000FCCF7092C6008091C00085FFFCCF609250
:107B9000C6008091C00085FFFCCF5092C600809146
:107BA000C00085FFFCCF4092C6008091C00085FFD9
:107BB000FCCF3092C6008091C00085FFFCCFB09210
:107BC000C60088CF0E94763C863808F4BDCF0E945C
:107BD000763C0E94F33C7ECF0E94763C803809F4CC
:107BE0009CC0813809F40BC1823809F43CC1883942
:107BF00009F48FC080E00E94C73C6CCF84E10E94F2
:107C0000BD3C0E94F33C66CF85E00E94BD3C0E94D3
:107C1000F33C60CF0E94763C809306010E94763C44
:107C2000809307010E94F33C55CF0E94763C80333D
:107C300009F41DC183E00E94BD3C80E00E94C73C66
:107C400049CF0E94763C809309020E94763C809343
:107C5000080280910C028E7F80930C020E94763C79
:107C6000853409F415C18091080290910902892B8D
:107C700089F000E010E00E94763CF801E85FFE4FDA
:107C800080830F5F1F4F80910802909109020817AF
:107C9000190788F30E94763C803209F045CF809125
:107CA0000C0280FF01C16091060170910701660F0F
:107CB000771F7093070160930601A0910802B091AD
:107CC00009021097C9F0E8E0F1E09B01AD014E0F09
:107CD0005F1FF999FECF32BD21BD819180BDFA9A17
:107CE000F99A2F5F3F4FE417F50799F76A0F7B1F4B
:107CF00070930701609306018091C00085FFFCCF5F
:107D0000F092C6008091C00085FFFCCFB092C60003
:107D1000E1CE83E00E94C73CDDCE82E00E94C73CFA
:107D2000D9CE0E94763C809309020E94763C8093D3
:107D300008028091060190910701880F991F909386
:107D40000701809306010E94763C853409F4A6C0A1
:107D500080910C028E7F80930C020E94763C8032D0
:107D600009F0B8CE8091C00085FFFCCFF092C6002C
:107D7000609108027091090261157105B9F140E046
:107D800050E080910C02A82FA170B82FB27011C0E2
:107D9000BB2309F45CC0E0910601F0910701319624
:107DA000F0930701E09306014F5F5F4F46175707B7
:107DB000E8F4AA2369F3F999FECF209106013091E6
:107DC000070132BD21BDF89A90B58091C00085FFB2
:107DD000FCCF9093C6002F5F3F4F30930701209355
:107DE00006014F5F5F4F4617570718F38091C00099
:107DF00085FDE5CE8091C00085FFF8CFE0CE81E023
:107E00000E94C73C67CE0E94763C803209F08CCE3F
:107E10008091C00085FFFCCFF092C6008091C00029
:107E200085FFFCCFE092C6008091C00085FFFCCFAB
:107E3000D092C6008091C00085FFFCCFC092C600E2
:107E40008091C00085FFFCCFB092C60043CEE09188
:107E50000601F091070194918091C00085FFFCCF4D
:107E60009093C6009CCF80E10E94C73C33CE0E9415
:107E7000763C0E94763C182F0E94763C112309F430
:107E800083C0113009F484C08FE00E94C73C22CE29
:107E900080910C02816080930C02E5CE80910C02EF
:107EA000816080930C0259CF809107018823880F4D
:107EB000880B8A2180930B02809106019091070123
:107EC000880F991F90930701809306018091080203
:107ED00080FF09C080910802909109020196909359
:107EE000090280930802F894F999FECF1127E091D6
:107EF0000601F0910701C8E0D1E08091080290915D
:107F00000902103091F40091570001700130D9F34B
:107F100003E000935700E89500915700017001308D
:107F2000D9F301E100935700E89509901990009169
:107F3000570001700130D9F301E000935700E89534
:107F40001395103498F011270091570001700130FB
:107F5000D9F305E000935700E895009157000170B0
:107F60000130D9F301E100935700E895329602976A
:107F700009F0C7CF103011F00296E5CF112480919F
:107F8000C00085FFB9CEBCCE8EE10E94C73CA2CD19
:0C7F900085E90E94C73C9ECDF894FFCF0D
:027F9C00800063
:040000030000780081
:00000001FF
