:100000000C9482010C94AA010C94AA010C94AA01EC
:100010000C94AA010C945C040C94AA010C94AA01FF
:100020000C94AA010C94AA010C94AA010C94AA01A4
:100030000C94AA010C94AA010C94AA010C94AA0194
:100040000C9495020C94AA010C94AA010C94AA0198
:100050000C94AA010C94AA010C94AA010C94AA0174
:100060000C94DF020C94AA0110181C1E1C1810001E
:1000700000071911111F00000000211042206330F9
:100080008440A550C660E770088129914AA16BB1F0
:100090008CC1ADD1CEE1EFF1311210027332522298
:1000A000B5529442F772D662399318837BB35AA340
:1000B000BDD39CC3FFF3DEE3622443342004011468
:1000C000E664C774A44485546AA54BB52885099590
:1000D000EEE5CFF5ACC58DD5533672261116300638
:1000E000D776F6669556B4465BB77AA719973887E0
:1000F000DFF7FEE79DD7BCC7C448E5588668A778F8
:100100004008611802282338CCC9EDD98EE9AFF92F
:10011000488969990AA92BB9F55AD44AB77A966AD7
:10012000711A500A333A122AFDDBDCCBBFFB9EEB7F
:10013000799B588B3BBB1AABA66C877CE44CC55CA7
:10014000222C033C600C411CAEED8FFDECCDCDDDCF
:100150002AAD0BBD688D499D977EB66ED55EF44E77
:10016000133E322E511E700E9FFFBEEFDDDFFCCF1F
:100170001BBF3AAF599F788F8891A981CAB1EBA173
:100180000CD12DC14EF16FE18010A100C230E320EF
:100190000450254046706760B9839893FBA3DAB397
:1001A0003DC31CD37FE35EF3B1029012F322D2323F
:1001B0003542145277625672EAB5CBA5A895898567
:1001C0006EF54FE52CD50DC5E234C324A01481048F
:1001D0006674476424540544DBA7FAB79987B89737
:1001E0005FE77EF71DC73CD7D326F2369106B016DF
:1001F00057667676154634564CD96DC90EF92FE9F7
:10020000C899E9898AB9ABA944586548067827682E
:10021000C018E1088238A3287DCB5CDB3FEB1EFBD6
:10022000F98BD89BBBAB9ABB754A545A376A167A7E
:10023000F10AD01AB32A923A2EFD0FED6CDD4DCDA6
:10024000AABD8BADE89DC98D267C076C645C454CCE
:10025000A23C832CE01CC10C1FEF3EFF5DCF7CDF76
:100260009BAFBABFD98FF89F176E367E554E745E1E
:10027000932EB23ED10EF01E43594C3A203030201E
:1002800020484541443A203000202D2D204E4F205B
:1002900046494C4553202D2D2000204341524420F7
:1002A0004D4F554E54204F4B2E004E4F2043415240
:1002B0004420494E53455254454400000000002557
:1002C0000028002B000404040404040404020202B5
:1002D0000202020303030303030102040810204087
:1002E0008001020408102001020408102000000010
:1002F00008000201000003040700000000000000E5
:1003000000004F1411241FBECFEFD8E0DEBFCDBFD9
:1003100011E0A0E0B1E0EEE8FAE202C005900D9233
:10032000A433B107D9F725E0A4E3B1E001C01D92E1
:10033000A33DB207E1F711E0C2E8D1E004C0219784
:10034000FE010E940E15C138D107C9F70E94E20BC9
:100350000C9445150C940000CF92DF92EF92FF921F
:100360000F931F93CF93DF936C017A018B01C0E051
:10037000D0E0CE15DF0589F0D8016D918D01D60151
:10038000ED91FC910190F081E02DC6010995892B3A
:1003900011F47E0102C02196ECCFC701DF91CF910D
:1003A0001F910F91FF90EF90DF90CF90089585ED12
:1003B0008093BC008091BC0084FDFCCF109236017C
:1003C000089540916F05262F30E0240F311D213212
:1003D0003105DCF4209136012430C9F4FC0180E0C1
:1003E00090E0861758F430916F052191DC01A35BF2
:1003F000BA4FA30FB11D2C930196F3CF80916F05D7
:10040000680F60936F0580E0089581E0089582E0B1
:100410000895089581E090E030913A0120913901EA
:10042000321710F480E090E091958195910908953C
:1004300080913A0190913901891730F48F5F809350
:100440003A0180E090E008958FEF9FEF089580914A
:10045000390190E020913A01821B91090895CF92D1
:10046000DF92EF92FF920F931F93CF93DF937C0164
:10047000262F972F8A0180914C05882391F0C62F53
:10048000D72F6E01C40ED51ECC15DD0571F0699114
:10049000D701ED91FC910190F081E02DC701099504
:1004A000F3CF642F822F0E94E101C801DF91CF9129
:1004B0001F910F91FF90EF90DF90CF900895CF9311
:1004C000DF931F92CDB7DEB7698320914C052223BD
:1004D000D1F020913701203240F021E030E0FC01E2
:1004E0003383228380E090E015C080913801E82FAB
:1004F000F0E0E45DFA4F998190838F5F809338013B
:100500008093370105C061E0CE0101960E94E101B0
:1005100081E090E00F90DF91CF9108958EBD0DB4F2
:1005200007FEFDCF08950E9423151F920F920FB66C
:100530000F9211242F933F938F939F93AF93BF9369
:100540008091BD059091BE05A091BF05B091C005F9
:100550003091BC0523E0230F2D3720F40196A11D17
:10056000B11D05C026E8230F0296A11DB11D2093E1
:10057000BC058093BD059093BE05A093BF05B093C5
:10058000C0058091B8059091B905A091BA05B091C8
:10059000BB050196A11DB11D8093B8059093B905C7
:1005A000A093BA05B093BB05BF91AF919F918F9176
:1005B0003F912F910F900FBE0F901F9018951F9293
:1005C0000F920FB60F9211242F933F934F935F9387
:1005D0006F937F938F939F93AF93BF93EF93FF930B
:1005E0008091B900887F803609F49CC068F5883214
:1005F00009F45BC090F4803109F454C038F48823C6
:1006000009F4F6C0883009F44DC0F6C0883109F409
:100610004CC0803209F45DC0EFC0803409F468C07A
:1006200048F4803309F455C0883309F0E5C080935D
:100630009405D8C0803509F44FC0883509F45DC0F1
:10064000883409F0D9C0D6C0883909F4C7C0A8F4E5
:10065000883709F467C038F4883609F463C08037F6
:1006600009F460C0C9C0883809F4B8C0803909F4F9
:100670005FC0803809F0C0C05BC0803B09F486C011
:1006800038F4803A09F466C0883A09F47FC0B4C0EF
:10069000803C09F4A7C0883C09F4A4C0883B09F455
:1006A0008AC0AAC08091B70510C09091B60580910C
:1006B000B505981770F5E091B60581E08E0F80932F
:1006C000B605F0E0EB56FA4F80818093BB0085ECD5
:1006D00086C0809394058EC0E091B60581E08E0FB0
:1006E0008093B6058091BB00F0E0EB56FA4F808313
:1006F0009091B6058091B5056EC0E091B60581E098
:100700008E0F8093B6058091BB00F0E0EB56FA4F58
:1007100080838091350181116DC081E08093340127
:1007200084EA61C083E08093360110929305CFCFB5
:1007300080919305803208F051C0E091930581E0EB
:100740008E0F809393058091BB00F0E0ED58FA4F37
:100750008083BDCF85EC8093BC00109236018091E0
:100760009305803230F4E0919305F0E0ED58FA4FB4
:1007700010826091930570E0E0917105F09172052F
:1007800083E795E009951092930536C084E0809345
:1007900036011092700510926F05E0916D05F09191
:1007A0006E05099580916F05811105C081E08093E8
:1007B0006F0510924D05E091700581E08E0F8093DA
:1007C0007005F0E0E35BFA4F80818093BB0090916D
:1007D000700580916F05981708F479CF85E88093AC
:1007E000BC000AC085EC8093BC001092360104C0A6
:1007F000109294050E94D701FF91EF91BF91AF91A4
:100800009F918F917F916F915F914F913F912F9128
:100810000F900FBE0F901F901895282F30E0A90160
:1008200066E0559547956A95E1F7E42F90914D0163
:1008300090FF02C087FFE4609091C00095FFFCCF5D
:10084000F0E0EF5FFE4F90819093C6009091C00062
:1008500095FFFCCFF90144E0F595E7954A95E1F75E
:10086000E770FF27EF5FFE4F90819093C600909155
:10087000C00095FFFCCF90914C0191110BC0F90184
:10088000F595E795F595E795E770FF27EF5FFE4F44
:10089000908101C09FE79093C60080934D01909195
:1008A000C00095FFFCCF8770E82FF0E0EF5FFE4FB0
:1008B00080818093C60008951F920F920FB60F9209
:1008C00011242F933F934F935F938F934C9922C0A2
:1008D0001092C10080914F014D9B0BC0882319F0ED
:1008E000815080934F0180914F01811110C0539A24
:1008F0000EC0482F50E04F5F5F4F2091500130E015
:10090000421753071CF48F5F80934F01539881E087
:1009100080934E018F915F914F913F912F910F9056
:100920000FBE0F901F9018958FEF8EBD0DB407FE70
:10093000FDCF8EB50895CF92DF92FF920F931F9354
:10094000CF93DF93C82F142F052FD62EC72EF22E4C
:100950002A9A87FF0BC020E040E050E0BA0187E709
:100960000E949B04D82F8230C8F5CF772A9A0E9424
:1009700094042A980E9494048C2F0E948E028C2D3D
:100980000E948E028D2D0E948E02802F0E948E0268
:10099000812F0E948E02C03421F0C83421F487E8F0
:1009A00003C085E901C08FEF0E948E02C0E00E9463
:1009B0009404D82F8F3F19F4CF5FC038C1F787E474
:1009C000C82E81E0D82E8601802F8C198F1530F427
:1009D0000E949404F80181938F01F6CF8D2FDF914F
:1009E000CF911F910F91FF90DF90CF90089520E05D
:1009F00040E050E0BA018AE40E949B04811111C0DA
:100A0000E6E0F5E02FEF80E18E0F2EBD0DB407FE7E
:100A1000FDCF9EB591938E13F8CF2A9A60910F0562
:100A200001C060E070E080E090E00895CF92DF9236
:100A3000EF92FF920F931F93CF93DF93EC01690125
:100A400080914B0183FD07C099E0440F551F661F3D
:100A5000771F9A95D1F720E081E50E949B048823B7
:100A600019F081E090E032C080E4E82E8CE9F82EA5
:100A70000E9494048F3F29F481E0E81AF108C1F73D
:100A8000F0CF8E3F71F740E050E08FEF8EBD0DB498
:100A900007FEFDCF4C155D0540F00115110529F04D
:100AA0009EB598830150110921964F5F5F4F4230E8
:100AB00092E0590759F72A9A8FEF8EBD0DB407FEC1
:100AC000FDCF81E090E0012B09F480E0DF91CF9130
:100AD0001F910F91FF90EF90DF90CF90089591E0DC
:100AE00090934C0590E29093050510923801109276
:100AF000370187FF02C060E801C060E086FD6064E6
:100B000085FD606284FD606182FD646081FD6260DC
:100B100080FD61608BE391E00E945F02809137016C
:100B2000813208F045C0909136019111FCCF92E0DE
:100B30009093360191E0909335019FEF9093940547
:100B40001092B6058093B505ACE2B5E025E935E035
:100B5000F9019E2F921B981718F49D919193F9CF4C
:100B60001092B7058091B70580648093B705809196
:100B70003401813061F4109234018091B705809383
:100B8000BB008091BC0083FDF8CF85EC01C085EEF1
:100B90008093BC00809136018230E1F3809194050E
:100BA0008F3F31F080919405803211F0809194054F
:100BB000109238011092370110924C050895CF938E
:100BC000C82F84600E946F058AE08A95F1F700C003
:100BD0008C2F8B7FCF910C946F05CF93C82F807F84
:100BE00081600E94DF058FE891E00197F1F700C076
:100BF000000020E1C29FC0011124C82FC1608C2FCA
:100C00000E94DF058C2F0E946F058FE39FE1019703
:100C1000F1F700C00000CF910895CF93DF93FC015E
:100C20008491EF012196882321F00E94ED05FE01B9
:100C3000F7CFDF91CF9108951F93CF93DF93EC010E
:100C400010E0212F30E0FE0101900020E9F73197FC
:100C5000EC1BFD0B2E173F0740F4FE01E20FF31FC4
:100C600080810E94ED051F5FECCFDF91CF911F9136
:100C70000895CF93DF93C82FD82FD07F8D2F0E9458
:100C8000DF058D2F0E946F058FE891E00197F1F746
:100C900000C00000DC2FD295D07F8D2F0E94DF0591
:100CA0008D2F0E946F05CC7F29F08FE891E001978E
:100CB000F1F704C08FE39FE10197F1F700C0000056
:100CC000DF91CF910895613041F028F0623039F022
:100CD000633039F00895805805C0805403C08057B0
:100CE00001C080530C9439060F931F93CF93682F44
:100CF00080E00E94630680E00E94ED050AE611E0B4
:100D0000C0E0F8013197808184FF07C06C2F81E03B
:100D10000E94630681E00E94ED056C2F82E00E9434
:100D20006306C8010E941C060A5E1F4FC13011F005
:100D3000C1E0E7CFCF911F910F91089581E00C940E
:100D40003906CF92DF92EF92FF920F931F93CF93CA
:100D5000DF93EC016A017B0102E010E02EEF31E04D
:100D60000E941605892BB1F48881998185359A4AAC
:100D700099F422E530E0B701A601CE010E941605E4
:100D8000892B61F481E0288139812634314439F49A
:100D900080E005C083E003C082E001C081E0DF9114
:100DA000CF911F910F91FF90EF90DF90CF9008951A
:100DB0000F931F93E091D105F091D2059B01AC01F7
:100DC000225031094109510982819381A481B58161
:100DD0000297A109B109281739074A075B0768F488
:100DE000A081B0E00E94031506851785208931890E
:100DF000600F711F821F931F03C060E070E0CB0182
:100E00001F910F9108950F931F93CF93DF93DC01F0
:100E1000E091D105F091D20511961C921E92149684
:100E20006D917D918D919C91179761307105810530
:100E3000910551F102811381248135816017710779
:100E40008207930708F5611571058105910521F465
:100E50006285738584859585ED01688779878A87A2
:100E60009B87611571058105910519F00E94D806CF
:100E700004C062857385848595856C877D878E87A0
:100E80009F8780E090E002C081E090E0DF91CF9109
:100E90001F910F9108950F931F93CF93DF9300D06D
:100EA00000D0CDB7DEB7E091D105F091D205623028
:100EB00071058105910528F461E070E080E090E023
:100EC00030C0028113812481358160177107820748
:100ED000930790F7462F4F7724E0429FD0011124CB
:100EE000AB01BC0187E076956795579547958A9544
:100EF000D1F70681178120853185400F511F621F70
:100F0000731F04E010E09D01CE0101960E941605BA
:100F1000892B91F689819A81AB81BC81BC01CD017D
:100F20009F700F900F900F900F90DF91CF911F91B6
:100F30000F9108952F923F924F925F926F927F92FE
:100F40008F929F92AF92BF92CF92DF92EF92FF92D9
:100F50000F931F93CF93DF93EC010091D105109174
:100F6000D205F80126A037A0E880F980FFEFEF1A3C
:100F7000FF0A88849984AA84BB844C845D846E842F
:100F80007F84E114F10409F467C041145104610441
:100F9000710409F461C067018FE0C822DD24C11427
:100FA000D104E9F5D301C2010196A11DB11D8C87C1
:100FB0009D87AE87BF8781149104A104B10409F411
:100FC0004BC0F801808190E00197970144E036958D
:100FD00027954A95E1F782239323892B01F5C501D3
:100FE000B4010E944B07623071058105910518F428
:100FF00081E090E036C0F8010281138124813581BF
:10100000601771078207930738F5688779878A87A1
:101010009B870E94D8066C877D878E879F87960165
:1010200085E0220F331F8A95E1F74C855D856E853B
:101030007F8500E210E0C1010E9416050097C1F60D
:10104000F101208121110BC04C865D866E867F8662
:1010500088869986AA86BB8683E090E002C0F982E2
:10106000E882DF91CF911F910F91FF90EF90DF9079
:10107000CF90BF90AF909F908F907F906F905F9038
:101080004F903F902F9008956F927F928F929F92F2
:10109000AF92BF92CF92DF92EF92FF920F931F9386
:1010A000CF93DF93CDB7DEB72C970FB6F894DEBFA2
:1010B0000FBECDBFF82EE62ECE0101965C018FE16A
:1010C00095E098E0792E780E2EE2622EEE2079F0EF
:1010D00040E150E061E571E081EC95E00E94281567
:1010E000892B11F48EEF24C10E94A10A04C081EC67
:1010F00095E00E949A07892BA9F7E091D105F0911C
:10110000D205309709F4A3C0B092C405A092C305DC
:1011100086A097A033E020E04091CD055091CE0508
:101120006091CF057091D00541155105610571059C
:10113000A1F02091C1053091C2052F70332785E0C1
:10114000220F331F8A95E1F700E210E0C4010E94EC
:101150001605892B09F4C9C0E4C0832F922F00978C
:1011600061F01092CD051092CE051092CF0510922D
:10117000D0058330910509F0D7C0E091D105F091F9
:10118000D20586A097A04091CD055091CE056091E3
:10119000CF057091D005452B462B472B19F4EFE175
:1011A000F5E051C09401EFE1F5E0D9018D919D0189
:1011B000803259F0853009F485EE3196AF01415007
:1011C0005109DA018C937E12F0CFD40118968C91DC
:1011D0008032A9F06082C40108969F012C5F3F4FC6
:1011E0003196DC016D91CD01603249F03196AF014D
:1011F00041505109DA016C93E217F30791F7D401DA
:101200001B968C911B9780931E055C964D915D916A
:101210006D917C915F9740931605509317056093ED
:1012200018057093190558968D919C915997909334
:101230001B0580931A0556968D919C915797909314
:101240001D0580931C05108280E090E002C088E0BC
:1012500090E0892B09F045C080911F05882309F48F
:1012600035CF6EE171E08FE195E00E946014892B2B
:1012700021F480911E0584FF29CFB1E0EB120AC052
:1012800046E150E067E771E081E691E00E942815B1
:10129000892B49F1F11006C086E1E1E6F1E0A7E70C
:1012A000B1E008C0E1E0FE1209C086E1E7E7F1E045
:1012B000A1E6B1E001900D928A95E1F7F0FACC2415
:1012C000C0F8D12C86E18C9DD0018D9DB00D1124EC
:1012D000AF59BE4FE6E1F5E001900D928A95E1F736
:1012E00002C08FEF25C080E023C0D4018C918823F9
:1012F000A9F0D4011B969C91853E11F093FF3DCF40
:10130000EE2039F00E94A10A009709F02ACF30E0C0
:1013100002CF81EC95E00E949A07F6CF83E090E03F
:1013200020CF81E090E01DCF009709F092CF37CF1A
:101330002C960FB6F894DEBF0FBECDBFDF91CF91D4
:101340001F910F91FF90EF90DF90CF90BF90AF90E3
:101350009F908F907F906F900895AF92BF92CF92A1
:10136000DF92EF92FF920F931F93CF93DF936C0165
:10137000262F972FFB018191BF018032C9F3E22E06
:10138000F92E8F3219F4FFEFEF1AFF0AF6011482DB
:10139000158216821782F7018081803208F094C08E
:1013A000C601DF91CF911F910F91FF90EF90DF90D9
:1013B000CF90BF90AF900C9403079E3209F4B0C059
:1013C000281708F096C09F3708F093C0692F70E087
:1013D000E3E2F1E04191411185C04FE9490F4A3103
:1013E00008F49052FE01E20FF11D90832F5F932FBE
:1013F00031E0390FF701E90FF11D9081903208F4C7
:101400007BC09F32D1F6222309F473C0E30EF11C96
:1014100080E08B87C6010E940307EC01892B09F04D
:1014200084C0E091D105F091D205A6A0B7A0F60145
:10143000208131812F70332745E0220F331F4A95D9
:10144000E1F7448555856685778500E210E0C501A2
:101450000E941605892B09F060C0F5018081882360
:1014600009F458C0F501838583FD4CC0F601028163
:1014700013814BE050E0B801C5010E942815892B6B
:1014800009F040C0F801838581114FC0E091D1057A
:10149000F091D20506A0F7A1E02D838584FF3AC024
:1014A00084899589A0E0B0E0DC0199278827428DE6
:1014B000538D60E070E0842B952BA62BB72BF601A3
:1014C00084839583A683B783F601C281D3814BE0E1
:1014D00050E060E270E0CE010E943E1520E090E016
:1014E00088E086CF042E000C550B4617570709F0ED
:1014F00071CFC5E0D0E019C02223D9F3E30EF11C6F
:1015000081E087CFC6010E949A07009709F48FCF28
:10151000EC010BC0C3E0D0E008C0C1E0D0E005C0E2
:10152000883039F728E08BE062CFCE01DF91CF9190
:101530001F910F91FF90EF90DF90CF90BF90AF90F1
:1015400008958F929F92AF92BF92CF92DF92EF92C7
:10155000FF920F931F93CF93DF93E091D105F0910A
:10156000D205309709F47DC0C091C105D091C20564
:10157000209709F479C08091CD059091CE05A09176
:10158000CF05B091D005892B8A2B8B2B09F46CC029
:10159000E0800091C5051091C6052091C7053091E6
:1015A000C805013011052105310519F481E090E0ED
:1015B0005DC082819381A481B581081719072A072C
:1015C0003B07A0F7011511052105310521F402851E
:1015D00013852485358521976E0184E0D694C794C0
:1015E0008A95E1F7F12CC601B7010E94B9145B019D
:1015F000812C912C8A149B0479F0C901B8010E94B6
:101600004B078B019C01623071058105910570F2D9
:101610008FEF881A980AEECF0093C9051093CA0578
:101620002093CB053093CC05C901B8010E94D806A0
:101630008B019C01C601B7010E94B914080F111D4E
:10164000211D311D0093CD051093CE052093CF05AC
:101650003093D005D093C205C093C10580E090E0DF
:1016600005C088E090E002C083E090E0DF91CF9178
:101670001F910F91FF90EF90DF90CF90BF90AF90B0
:101680009F908F9008950F931F93CF93DF93CDB7C3
:10169000DEB72C970FB6F894DEBF0FBECDBFE0913A
:1016A000D105F091D2051092C2051092C105309774
:1016B00071F1BC01CE0101969093C4058093C305DE
:1016C00006A117A181EC95E00E94AD09009749F5AC
:1016D000F8018081882309F1838584FF1BC08489F8
:1016E0009589A0E0B0E0DC0199278827428D538DD1
:1016F00060E070E0842B952BA62BB72B8093C5055B
:101700009093C605A093C705B093C80506C088E0AE
:1017100090E007C083E090E004C081EC95E00E9477
:1017200003072C960FB6F894DEBF0FBECDBFDF9136
:10173000CF911F910F91089590E0FC01E351FD4F6F
:101740002491FC01E752FD4F3491FC01EB53FD4F16
:10175000E491EE23B1F1222339F1233091F038F4F2
:101760002130A9F0223001F584B58F7D12C02730D9
:1017700091F02830A1F02430B9F4809180008F7D61
:1017800003C0809180008F77809380000DC084B566
:101790008F7784BD09C08091B0008F7703C080919E
:1017A000B0008F7D8093B000F0E0EE0FFF1FE55496
:1017B000FD4FA591B4918FB7F894EC913E2B3C93DB
:1017C0008FBF0895CF93DF93CDB7DEB7C554D1094E
:1017D0000FB6F894DEBF0FBECDBF789484B582609B
:1017E00084BD84B5816084BD85B5826085BD85B5C5
:1017F000816085BD80916E00816080936E00109243
:1018000081008091810082608093810080918100BD
:10181000816080938100809180008160809380004E
:101820008091B10084608093B1008091B0008160AC
:101830008093B00080917A00846080937A008091D8
:101840007A00826080937A0080917A008160809330
:101850007A0080917A00806880937A001092C100AB
:1018600010923A011092390110923801109237010A
:101870001092360181E0809335011092340182E1AB
:101880000E949C0B83E10E949C0B8091B9008E7F8B
:101890008093B9008091B9008D7F8093B90088E46E
:1018A0008093B80085E48093BC008BE39DE00197B2
:1018B000F1F780E00E946F052FEF33EF41E02150F8
:1018C00030404040E1F700C0000080E30E946F0517
:1018D00080E30E94DF058FE19EE40197F1F700C0ED
:1018E000000080E30E94DF05AFE8B1E01197F1F757
:1018F00000C0000080E30E94DF05EFE8F1E03197CF
:10190000F1F700C0000080E20E946F0580E20E94B3
:10191000DF0580E20E946F058FE891E00197F1F703
:1019200000C0000088E20E9439068CE00E9439065F
:1019300086E00E9439060E949E0680E40E943906D5
:1019400008E610E0E8E0FE2EF00EF80184910E9417
:10195000ED050F5F1F4FF012F8CF88E40E943906A3
:1019600000E010E0F801E059FF4F84910E94ED057E
:101970000F5F1F4F08301105A9F7F8941092C500AA
:1019800087E08093C4001092C0001092C100809143
:101990006D00806180936D008BB1816F8BB988B1D0
:1019A0008E6088B920988AB1837F8AB98CE284B925
:1019B00080E58CBD789483E294E090930405809355
:1019C000030583E094E090930204809301040E9455
:1019D0009E068AEA92E00E940D068CE2E1E6F1E0C2
:1019E000DF011D928A95E9F77BEDA72E73E0B72EF4
:1019F0001092D2051092D10510924B012A9A14E14F
:101A00000E9494041150E1F720E040E050E0BA0158
:101A100080E40E949B04182F813009F04FC024E01D
:101A20004AEA51E060E070E088E40E949B04813063
:101A3000B1F480914901813009F040C080914A01A0
:101A40008A3AE1F508EA11E620E040E050E060E083
:101A500070E489EE0E949B0481116DC623C020E0D2
:101A600040E050E0BA0189EE0E949B04823028F4E5
:101A7000B2E0B0934B0199EE03C010934B0191E497
:101A800008EA11E620E040E050E0BA01892F2696EE
:101A90009FAF26970E949B0426969FAD26978111A3
:101AA00069C658C6012B51F024E040E050E0BA016D
:101AB0008AE70E949B04882309F442C62A9A0E945E
:101AC000940480914B01882309F492CF40E050E0C8
:101AD000BA01CE0101960E94A106813011F500E104
:101AE00010E02EEB31E040E050E0BA01CE0101966B
:101AF0000E941605892B19F001E010E090C08D813D
:101B00008B50823018F009E010E089C049845A8473
:101B10006B847C84B301A201CE0101960E94A106D0
:101B200003C0412C512C3201833031F38111EBCFB2
:101B300004E210E02DE030E0B301A201CE010196F5
:101B40000E9416058C01892BB9F6E981E093DB032D
:101B5000AC81288D398D4A8D5B8DB0E00E940315D4
:101B600022966CAF7DAF8EAF9FAF2297CA80DB808D
:101B7000E12CF12C8C899D89AE89BF898C199D0936
:101B8000AE09BF09BC01CD0122962CAD3DAD4EADD5
:101B90005FAD2297621B730B840B950B2E2F30E0E9
:101BA00040E050E00E94E114DA01C9010296A11D53
:101BB000B11D8093DD039093DE03A093DF03B09308
:101BC000E00388A199A1AAA1BBA18093E50390930A
:101BD000E603A093E703B093E803C40CD51CE61C0E
:101BE000F71CC092E103D092E203E092E303F0928B
:101BF000E40322968CAD9DADAEADBFAD2297C80E6D
:101C0000D91EEA1EFB1EC092E903D092EA03E092BD
:101C1000EB03F092EC03B092D205A092D105012B18
:101C200009F0E6CE0E949E068AE992E00E940D0627
:101C30000E94F70469AB7AAB8BAB9CAB2A9A40EE5F
:101C400050E064E070E080910305909104050E94EB
:101C50008514E0910305F09104058081882331F11A
:101C600044E050E060E070E0CE0101960E948514EF
:101C700049815A816B817C8189A99AA9ABA9BCA9A8
:101C8000481759076A077B0771F044E050E060E0AD
:101C900070E0CE01C1960E94951460E084E090E06F
:101CA0000E949F149ACE91E09EAFC6C189E191E057
:101CB0000E94430B912C0E949E0660E082E00E94ED
:101CC000440881110CC080E1E1ECF5E0A1E5B1E050
:101CD00001900D928A95E1F73324339401C0312CA1
:101CE00060E083E00E944408811105C03394812C98
:101CF0002224239429C0812C22242394311024C02F
:101D000091100FC089E892E00E940D06AFEFBBE78B
:101D1000E2E9A150B040E040E1F700C00000892CAA
:101D20005CCE8CE2E1E6F1E0DF011D928A95E9F7F5
:101D30008EE280936A0180936B0180E18093690158
:101D4000832C33243394232C0E949E06882D0E94DA
:101D50007406319B8AC0339B04C0329B02C0319908
:101D6000FACFC9A8DAA8EBA8FCA80E94F704C61607
:101D7000D706E806F90609F02ACE33993CC0B1E04F
:101D8000B31550F5811019C0222081F080EC0E941B
:101D9000390680E00E94ED0580E80E94390680E265
:101DA0000E94ED05212C8824839416C060E083E016
:101DB0000E94440887FFEACF0ACE60E081E00E94DB
:101DC0004408811107C00E949E06882D0E94740657
:101DD000212C02C087FDFBCD83E033990CC0EFEFCF
:101DE000F1EE24E0E150F0402040E1F700C00000B7
:101DF000815099F7C4CF3299ACCF31E0331530F52B
:101E0000831214C061E082E00E94440887FDDFCDA8
:101E100080E80E94390680E00E94ED0580EC0E9477
:101E2000390680E20E94ED05812C10C021100EC001
:101E300061E080E00E944408811106C00E949E0675
:101E4000882D0E94740602C087FDC1CD83E03299BF
:101E500080CF4FEF51EE94E0415050409040E1F779
:101E600000C00000815099F7C8CF25961FAE259776
:101E7000319911C02596AFAD2597AF5F2596AFAFCD
:101E80002597BFEFE1EEF4E0B150E040F040E1F71C
:101E900000C00000EDCF2FEF35EA4EE0215030407A
:101EA0004040E1F700C000000091030510910405D7
:101EB0008FE2D8018C93C82CD12CB6E18B9E700197
:101EC0001124F701EF59FE4F808584FD0AC059E5C2
:101ED000E52E53E0F52EB12CAA24A3946FE2762EC2
:101EE00062C042E050E06BE171E0C70186599E4F4D
:101EF0000E942815892B31F49920F9F09A949110B9
:101F000012C01BC0E9E0E91570F08DE0899DD00199
:101F10001124A75ABC4FF701E659FE4F01900D92CC
:101F20008A95E1F7939439E5E32E33E0F32ECC2440
:101F3000C394D12C4FE2B42E06C089E191E00E94F7
:101F4000430B912C28C0F70101900020E9F731974D
:101F5000AF014E195F09B701C8018C0D911D0E9498
:101F60003515F70101900020E9F73197EE19FF09C7
:101F7000EC0DCC24C394CE0E98012E0F311DF90127
:101F8000B082D3943DE0E30EF11CD910DCCF108277
:101F9000C8010E94430B8CE2E1E6F1E0DF011D92F3
:101FA0008A95E9F788CE8A2D90E0B91411F1F701EE
:101FB00001900020E9F73197AF014E195F09B70191
:101FC000800F911F0E943515F70101900020E9F75D
:101FD0003197EE19FF09EA0DAA24A394AE0E9801D9
:101FE0002E0F311DF9017082B3943DE0E30EF11C18
:101FF000DACF46E14C9D90014D9D300D1124A90191
:1020000046595E4F7A01FA0101900020E9F73197B5
:10201000AF014E195F09080F191FB701C8010E94CF
:102020003515F70101900020E9F73197EE19FF0906
:10203000E00FF11F10821EAE609103057091040540
:102040000091D1051091D20501151105D9F1D801E2
:102050009696ED90FC909797CE0185969C838B8306
:1020600084970E94AD09009719F0882389F12AC04E
:10207000F7018081882331F1838584FD23C0848921
:102080009589A0E0B0E0DC0199278827428D538D27
:1020900060E070E0842B952BA62BB72BF801828F84
:1020A000938FA48FB58FF701848D958DA68DB78DF5
:1020B000F801868B978BA08FB18F128A138A148AAE
:1020C000158A06C0BEADB13009F081CC2A9A3DC157
:1020D000EEADE1111DC02596FFAD2597F531C0F09D
:1020E0002A9A44E050E060E070E0CE01C1960E9480
:1020F00095148091030590910405FC010190002046
:10210000E9F7AF01481B590B64E070E00E94951499
:102110000E949E0680E00E94ED0580E20E94ED058F
:102120002EAD211107C036E1839EC00111248659CE
:102130009E4F18C08091030590910405FC01019009
:102140000020E9F73197E81B2E2F30E0DC01A20FC9
:10215000B31F4C914F3211F0E150F6CF2F5F3F4F3C
:10216000820F931F0E941C0680EC0E94390688E7AC
:1021700092E00E940D068091F1039091F203A091EC
:10218000F303B091F403AC01BD015F7166277727BB
:1021900021E0452B462B472B09F420E01DE0B695A6
:1021A000A795979587951A95D1F7820F809350013F
:1021B000833518F082E580935001C090F503D090EC
:1021C000F603E090F703F090F8032601370156E09C
:1021D00076946794579447945A95D1F7F201E17039
:1021E000FF27B301A2017695679557954795809192
:1021F000E1039091E203A091E303B091E403480F5F
:10220000591F6A1F7B1F00E011E020E03E2F83E092
:1022100094E00E941605892B09F0D9CBC0921102D7
:10222000D0921202E0921302F0921402AA24A39414
:10223000B12C80915001A0E18A9FC0011124A81601
:10224000B90608F062C06091DB0370E0C5010E942E
:10225000B914892B09F040C0D701C60136E0B69504
:10226000A795979587953A95D1F78AAF9BAFACAF75
:10227000BDAF84159505A605B70501F18091E10371
:102280009091E203A091E303B091E4034AAD5BAD0A
:102290006CAD7DAD7695679557954795480F591F5D
:1022A0006A1F7B1F00E011E020E08AAD9BAD8170CA
:1022B0009927382F83E094E00E941605CC0CCC0CB3
:1022C000EC2DF0E0ED5FFB4FC080D180E280F38029
:1022D0004AAC5BAC6CAC7DACC5018F709927892B87
:1022E00081F4F50114E0F695E7951A95E1F7EE0F04
:1022F000FF1FEE0FFF1FEF5EFD4FC082D182E28213
:10230000F3829FEFA91AB90A94CF10924F0110924D
:102310004E01BFEFEDE3F9E4B150E040F040E1F7EA
:1023200000C00000BB24BA941092000189B1807CE7
:1023300091F03199FBCF319BFECF2A9A83E08093B5
:1023400000012EAD213009F0FFCC60E084E090E088
:102350000E949F143CCB80914F01811101C0539A80
:10236000DA9A80916800846080936800529A19AE6E
:1023700089AD803108F0BEC189AD8111D3C0109202
:102380004D011EAA1DAA8DA99EA9883E934030F436
:102390008DA99EA901969EAB8DABF5CF80914F0183
:1023A000B81609F4BFC080914E01882389F0F894D3
:1023B00010924E01789418AE1FAA8FA998AD803163
:1023C000974288F78FA998AD019698AF8FABF5CF5C
:1023D000B0904F0154E0B59EF0011124EF5EFD4F27
:1023E000C080D180E280F38026013701A6E0769498
:1023F000679457944794AA95D1F7C0929501D092CB
:102400009601E0929701F0929801C0929101D092CA
:102410009201E0929301F0929401F201E170FF27A2
:10242000B301A20176956795579547958091E10391
:102430009091E203A091E303B091E403480F591F88
:102440006A1F7B1F00E011E020E03E2F83E094E054
:102450000E941605892B09F020C281E991E024969B
:102460009FAF8EAF2497AA24A3946091DB038A2D9B
:102470000E94AD1491113EC0A7019601F6E0569559
:10248000479537952795FA95D1F72AAF3BAF4CAFD3
:102490005DAF2415350546055705F1F08091E10340
:1024A0009091E203A091E303B091E403BA01A90182
:1024B0007695679557954795480F591F6A1F7B1F5B
:1024C00000E011E020E08AAD9BAD81709927382FA4
:1024D00083E094E00E941605CC0CCC0CEC2DF0E0CF
:1024E000ED5FFB4FC080D180E280F3804AAC5BACF3
:1024F0006CAC7DAC2496AEADBFAD24971C96CD924E
:10250000DD92ED92FC921F97FD01C086D186E28696
:10251000F386A39438962496FFAFEEAF2497F0E1AC
:10252000AF12A3CF89B18170FF24F394F82699AD3F
:1025300089AD1091DB0309AD9170E92EEF2DF0E02C
:10254000DF0154E0AA0FBB1F5A95E1F7A80FB11D98
:10255000AA0FBB1FAA0FBB1FAF56BE4F8D919D91F7
:102560000D90BC91A02D9C01AD0122503109410973
:102570005109A12FB0E00E9403154090E90350904B
:10258000EA036090EB037090EC03460E571E681E42
:10259000791E9F012B0D311D2B0D311DC90173E0DB
:1025A000880F991F7A95E1F70695800F911DBD015F
:1025B0000E94CD14AC01990F660B770B440D551D8D
:1025C000661D771D00E011E020E03E2D83E094E0E1
:1025D0000E941605892B09F060C1E2EBEB25F0E0C3
:1025E000EE0FFF1FE858FF4F8591949120E392274B
:1025F0009093900180938F01E0919001EF25F0E09E
:10260000EE0FFF1FE858FF4F8591949120918F01A5
:1026100092279093900180938F01E9ADF0E031967D
:1026200080919001E827EE0FFF1FE858FF4F85913A
:10263000949120918F0192279093900180938F0124
:10264000E091900131E0E327F0E0EE0FFF1FE85842
:10265000FF4F8591949120918F0192279093900143
:1026600080938F0145E952EE50938E0140938D0186
:1026700090E0E92FF0E0ED5FFB4FE08180918E016B
:10268000E827F0E0EE0FFF1FE858FF4F2591349147
:1026900080918D01382730938E0120938D019F5FAB
:1026A00041F780914E01811125C04E9B67C022C029
:1026B000133109F4C2C008F49CC0163109F4C2C039
:1026C00008F4ABC0183309F4BFC01B3309F4C1C010
:1026D0001C3209F48CC0802F0E940D041F5F1C3334
:1026E00039F789AD811101C0209880914E0188236E
:1026F00009F4B3C089B1807C09F439CE90E0F89434
:102700008091C2008F738093C2008091C100877F47
:102710008093C1007894809168008B7F80936800DB
:102720001092000120988AB1837F8AB92A9A99234E
:1027300009F4FACD4CC90150110909F4BFC984C983
:102740008091470186FD02C084E001C08CE0809347
:102750004B01B4C9012B59F020E040E052E060E0A9
:1027600070E080E50E949B04882309F4A7C91092B9
:102770004B01A4C901501109D1F384C98091000112
:10278000811103C053E05093000189AD81112EC027
:1027900080914F016AE00E94AD14182F85EC0E94D1
:1027A000390680E3810F0E94ED0580914F016AE0B8
:1027B0000E94AD1480E3890F0E94ED058FEC0E940A
:1027C000390680E38F0D0E94ED05F89480EC80932C
:1027D000C2008091C10088608093C10078941AE0A3
:1027E0008EE40E940D041150D9F7209A10E000E009
:1027F00072CF1031F1F048F41C30B9F01F3009F0FD
:102800006ACF10924C010EEF66CF1131A1F0123158
:1028100009F061CF09AD0F5F5ECF143181F0153142
:1028200009F059CF00918F0156CF81E080934C0180
:102830000EC00B2D50CF0F2D4ECF01E04CCF00918D
:10284000900149CF0EE447CF91E090934C0101EA0B
:1028500042CF10924C010BEF3ECF4E994BCF10E080
:10286000E12FF0E0ED5FFB4F80810E940D041F5FC0
:10287000B9F780918E010E940D0480918D010E9414
:102880000D0416E38EE40E940D041150D9F74E9901
:1028900031CF89AD8F5F89AF6BCD91E030CFEBE366
:1028A000F1E01382128288EE93E0A0E0B0E084832E
:1028B0009583A683B7838DE091E09183808308950B
:1028C000FB0151915523B1F0BF01DC01052E4D9163
:1028D000442369F010D0D9F7CD010190002049F0D0
:1028E0004D91411108D0C9F3FB014111EECF81E0B8
:1028F00090E001970895402539F0403229F44029AD
:102900004B57465E08F018940895DC01CB01FC019A
:10291000F999FECF06C0F2BDE1BDF89A319600B438
:102920000D9241505040B8F70895DC01CB0103C02F
:102930002D910E94A01441505040D0F70895262FA9
:10294000F999FECF1FBA92BD81BD20BD0FB6F89494
:10295000FA9AF99A0FBE01960895991B79E004C07E
:10296000991F961708F0961B881F7A95C9F78095CE
:102970000895AA1BBB1B51E107C0AA1FBB1FA617C6
:10298000B70710F0A61BB70B881F991F5A95A9F718
:1029900080959095BC01CD01089597FB072E16F404
:1029A000009407D077FD09D00E94B91407FC05D028
:1029B0003EF4909581959F4F0895709561957F4F56
:1029C0000895A1E21A2EAA1BBB1BFD010DC0AA1F70
:1029D000BB1FEE1FFF1FA217B307E407F50720F088
:1029E000A21BB30BE40BF50B661F771F881F991F03
:1029F0001A9469F760957095809590959B01AC014C
:102A0000BD01CF0108950E941415A59F900DB49F9C
:102A1000900DA49F800D911D11240895EE0FFF1FAE
:102A20000590F491E02D0994A29FB001B39FC001DD
:102A3000A39F700D811D1124911DB29F700D811DEA
:102A40001124911D089581E090E0F8940C944515AF
:102A5000FB01DC0104C08D910190801921F44150EB
:102A60005040C8F7881B990B0895FB01DC0102C098
:102A700001900D9241505040D8F70895DC0101C0FB
:0E2A80006D9341505040E0F70895F894FFCF59
:102A8E0003777DDFDDF7FDDFDD000000005F022F45
:102A9E0002270218020A0209022F002E2E002E749F
:102AAE00726400202B2C3B5B3D5C5D222A3A3C3E3F
:042ABE003F7C000059
:107800000C94343C0C94513C0C94513C0C94513CE1
:107810000C94513C0C94513C0C94513C0C94513CB4
:107820000C94513C0C94513C0C94513C0C94513CA4
:107830000C94513C0C94513C0C94513C0C94513C94
:107840000C94513C0C94513C0C94513C0C94513C84
:107850000C94513C0C94513C0C94513C0C94513C74
:107860000C94513C0C94513C11241FBECFEFD8E036
:10787000DEBFCDBF11E0A0E0B1E0ECE9FFE702C060
:1078800005900D92A230B107D9F712E0A2E0B1E065
:1078900001C01D92AD30B107E1F70E942D3D0C945F
:1078A000CC3F0C94003C982F959595959595959582
:1078B000905D8F708A307CF0282F295A8091C0000B
:1078C00085FFFCCF9093C6008091C00085FFFCCF60
:1078D0002093C6000895282F205DF0CF982F809127
:1078E000C00085FFFCCF9093C6000895EF92FF92F1
:1078F0000F931F93EE24FF2487018091C00087FD22
:1079000017C00894E11CF11C011D111D81E4E8164B
:1079100082E4F8068FE0080780E0180770F3E09132
:107920000401F091050109958091C00087FFE9CF1E
:107930008091C6001F910F91FF90EF9008950E94D3
:10794000763C982F8091C00085FFFCCF9093C600B5
:1079500091362CF490330CF09053892F089597555D
:10796000892F08951F930E949F3C182F0E949F3CCF
:107970001295107F810F1F9108951F93182F882350
:1079800021F00E94763C1150E1F71F9108951F935A
:10799000182F0E94763C803249F0809103018F5F5E
:1079A000809303018530C1F01F9108958091C0003C
:1079B00085FFFCCF84E18093C6008091C00085FFE5
:1079C000FCCF1093C6008091C00085FFFCCF80E102
:1079D0008093C6001F910895E0910401F091050184
:1079E00009951F9108950E94763C803241F0809164
:1079F00003018F5F80930301853081F008958091AA
:107A0000C00085FFFCCF84E18093C6008091C00058
:107A100085FFFCCF80E18093C6000895E0910401CA
:107A2000F09105010995089540E951E08823A1F0FE
:107A30002D9A28EE33E0FA013197F1F721503040CA
:107A4000D1F72D9828EE33E0FA013197F1F7215064
:107A50003040D1F7815061F708953F924F925F9285
:107A60006F927F928F929F92AF92BF92CF92DF924E
:107A7000EF92FF920F931F93CF93DF93000080E16B
:107A80008093C4001092C50088E18093C10086E015
:107A90008093C2005098589A259A81E00E94143D24
:107AA00024E1F22E9EE1E92E85E9D82E0FE0C02ECA
:107AB00010E1B12EAA24A394B1E49B2EA6E58A2E50
:107AC000F2E57F2EE0E26E2E79E4572E63E5462E36
:107AD00050E5352E0E94763C8033B1F18133B9F107
:107AE000803409F46FC0813409F476C0823409F41B
:107AF00085C0853409F488C0803531F1823521F1A3
:107B0000813511F1853509F485C0863509F48DC0BC
:107B1000843609F496C0843709F403C1853709F423
:107B200072C1863709F466C0809103018F5F80932C
:107B30000301853079F6E0910401F0910501099582
:107B40000E94763C803351F60E94F33CC3CF0E94E2
:107B5000763C803249F78091C00085FFFCCFF092DF
:107B6000C6008091C00085FFFCCF9092C600809136
:107B7000C00085FFFCCF8092C6008091C00085FFC9
:107B8000FCCF7092C6008091C00085FFFCCF609250
:107B9000C6008091C00085FFFCCF5092C600809146
:107BA000C00085FFFCCF4092C6008091C00085FFD9
:107BB000FCCF3092C6008091C00085FFFCCFB09210
:107BC000C60088CF0E94763C863808F4BDCF0E945C
:107BD000763C0E94F33C7ECF0E94763C803809F4CC
:107BE0009CC0813809F40BC1823809F43CC1883942
:107BF00009F48FC080E00E94C73C6CCF84E10E94F2
:107C0000BD3C0E94F33C66CF85E00E94BD3C0E94D3
:107C1000F33C60CF0E94763C809306010E94763C44
:107C2000809307010E94F33C55CF0E94763C80333D
:107C300009F41DC183E00E94BD3C80E00E94C73C66
:107C400049CF0E94763C809309020E94763C809343
:107C5000080280910C028E7F80930C020E94763C79
:107C6000853409F415C18091080290910902892B8D
:107C700089F000E010E00E94763CF801E85FFE4FDA
:107C800080830F5F1F4F80910802909109020817AF
:107C9000190788F30E94763C803209F045CF809125
:107CA0000C0280FF01C16091060170910701660F0F
:107CB000771F7093070160930601A0910802B091AD
:107CC00009021097C9F0E8E0F1E09B01AD014E0F09
:107CD0005F1FF999FECF32BD21BD819180BDFA9A17
:107CE000F99A2F5F3F4FE417F50799F76A0F7B1F4B
:107CF00070930701609306018091C00085FFFCCF5F
:107D0000F092C6008091C00085FFFCCFB092C60003
:107D1000E1CE83E00E94C73CDDCE82E00E94C73CFA
:107D2000D9CE0E94763C809309020E94763C8093D3
:107D300008028091060190910701880F991F909386
:107D40000701809306010E94763C853409F4A6C0A1
:107D500080910C028E7F80930C020E94763C8032D0
:107D600009F0B8CE8091C00085FFFCCFF092C6002C
:107D7000609108027091090261157105B9F140E046
:107D800050E080910C02A82FA170B82FB27011C0E2
:107D9000BB2309F45CC0E0910601F0910701319624
:107DA000F0930701E09306014F5F5F4F46175707B7
:107DB000E8F4AA2369F3F999FECF209106013091E6
:107DC000070132BD21BDF89A90B58091C00085FFB2
:107DD000FCCF9093C6002F5F3F4F30930701209355
:107DE00006014F5F5F4F4617570718F38091C00099
:107DF00085FDE5CE8091C00085FFF8CFE0CE81E023
:107E00000E94C73C67CE0E94763C803209F08CCE3F
:107E10008091C00085FFFCCFF092C6008091C00029
:107E200085FFFCCFE092C6008091C00085FFFCCFAB
:107E3000D092C6008091C00085FFFCCFC092C600E2
:107E40008091C00085FFFCCFB092C60043CEE09188
:107E50000601F091070194918091C00085FFFCCF4D
:107E60009093C6009CCF80E10E94C73C33CE0E9415
:107E7000763C0E94763C182F0E94763C112309F430
:107E800083C0113009F484C08FE00E94C73C22CE29
:107E900080910C02816080930C02E5CE80910C02EF
:107EA000816080930C0259CF809107018823880F4D
:107EB000880B8A2180930B02809106019091070123
:107EC000880F991F90930701809306018091080203
:107ED00080FF09C080910802909109020196909359
:107EE000090280930802F894F999FECF1127E091D6
:107EF0000601F0910701C8E0D1E08091080290915D
:107F00000902103091F40091570001700130D9F34B
:107F100003E000935700E89500915700017001308D
:107F2000D9F301E100935700E89509901990009169
:107F3000570001700130D9F301E000935700E89534
:107F40001395103498F011270091570001700130FB
:107F5000D9F305E000935700E895009157000170B0
:107F60000130D9F301E100935700E895329602976A
:107F700009F0C7CF103011F00296E5CF112480919F
:107F8000C00085FFB9CEBCCE8EE10E94C73CA2CD19
:0C7F900085E90E94C73C9ECDF894FFCF0D
:027F9C00800063
:040000030000780081
:00000001FF
